:020000040800F2
:10000000085F00205D0200086B340008093000081A
:10001000693400085D0B00084D3E00080000000038
:100020000000000000000000000000009D0100082A
:100030002D0D000800000000F901000889370008B4
:1000400077020008770200087702000877020008AC
:10005000770200087702000877020008770200089C
:10006000770200087702000877020008770200088C
:10007000770200087702000877020008770200087C
:10008000770200087702000877020008770200086C
:10009000770200087702000877020008770200085C
:1000A00077020008953900087702000877020008F7
:1000B000770200087702000877020008770200083C
:1000C000770200087702000877020008770200082C
:1000D00077020008293E0008353E0008413E00082E
:1000E000770200087702000877020008770200080C
:1000F00077020008770200087702000877020008FC
:1001000077020008770200087702000877020008EB
:10011000770200087702000877020008A13900087A
:10012000C90B000877020008770200087702000870
:1001300077020008770200087702000877020008BB
:1001400077020008770200087702000877020008AB
:10015000770200087702000877020008770200089B
:10016000770200087702000877020008770200088B
:1001700077020008770200087702000800000000FC
:100180007702000877020008DFF80CD000F0BEFB11
:100190000048004799480008085F00202C4B196868
:1001A0000868B0E8F04F80F30988BFF36F8F4FF015
:1001B000000080F3118870470000000008480068C4
:1001C000006880F308884FF0000080F3148862B65E
:1001D00061B6BFF34F8FBFF36F8F00DF00BF00BF6B
:1001E00008ED00E0DFF80C00016841F470010160E7
:1001F000704700BF88ED00E0EFF30980BFF36F8F19
:10020000134B1A681EF0100F08BF20ED108A20E96A
:10021000F04F106009B44FF0500080F31188BFF325
:100220004F8FBFF36F8F05F085FC4FF0000080F318
:10023000118809BC19680868B0E8F04F1EF0100F6B
:1002400008BFB0EC108A80F30988BFF36F8F704746
:1002500024000020EFF30580704700000648804727
:1002600006480047FEE7FEE7FEE7FEE7FEE7FEE79B
:10027000FEE7FEE7FEE7FEE73938000889010008DF
:100280002DE9F05F0546002092469B4688460646CB
:10029000814640241BE0284641464746224600F05E
:1002A0004AF953465A46C01A914110D3114618468E
:1002B000224600F031F92D1A67EB01084F4622461D
:1002C0000120002100F028F917EB00094E41201E03
:1002D000A4F10104DFDC484631462A464346BDE826
:1002E000F09F40EA01039B0703D009E008C9121FF1
:1002F00008C0042AFAD203E011F8013B00F8013BE0
:10030000521EF9D27047D2B201E000F8012B491E0B
:10031000FBD270470022F6E710B513460A460446A2
:100320001946FFF7F0FF204610BD30B505462A46B6
:100330000B4612F8010B13F8014B08B1A042F8D09C
:100340001CB1002802D06D1CF1E7284630BD421CCC
:1003500010F8011B0029FBD1801A7047034611F8E1
:10036000012B00F8012B002AF9D1184670472DE91E
:10037000FE4F81EA030404F0004421F000410094A0
:100380004FF0000B23F0004350EA01045ED052EA24
:1003900003045BD0C3F30A54C1F30A552C44A4F2FE
:1003A000F3340194A0FB0254C1F3130141F4801112
:1003B000C3F3130343F4801301FB024400FB034E19
:1003C000840A970A44EA815447EA8357A4FB0768E2
:1003D00002958D0A05FB07854FEA932C04FB0C540C
:1003E0002705029D4FEA065847EA1637B5EB080580
:1003F0006EEB070C870E920E47EA811742EA8312D2
:10040000A7FB0201B6EB0B0164EB00042B0D43EAE2
:100410000C335E1844EB1C50DA465146E7FB0201F0
:10042000C5F313044FEA0B3343EA14534FEA043283
:10043000019C43EA0603A4F10C040294009CCDE95C
:1004400000B400F0CEF803B0BDE8F08F0020014604
:10045000F9E70EB5C10F80EAE0700844CA07002131
:1004600040F233438DE80E000A460B4600F0B9F81F
:1004700003B000BD0EB540F2334102910021CDE939
:1004800000110A460B4600F0ACF803B000BD00F0C6
:10049000004230F000400AD0C10D01F56071C0F398
:1004A000160042EA0151C20840071143704700207C
:1004B0000146704701F0004330B421F0004150EA9A
:1004C000010206D00A0DA2F56072C1F31301002AE1
:1004D00002DC30BC00207047440F44EAC104C10074
:1004E000E01830BC00EBC25000F035B830B50B4618
:1004F000014600202022012409E021FA02F59D4254
:1005000005D303FA02F5491B04FA02F52844151E27
:10051000A2F10102F1DC30BD202A04DB203A00FA0E
:1005200002F1002070479140C2F1200320FA03F34A
:10053000194390407047202A04DB203A21FA02F048
:100540000021704721FA02F3D040C2F1200291400D
:100550000843194670470029A8BF7047401C49004E
:1005600008BF20F00100704710B4B0FA80FC00FA18
:100570000CF050EA010404BF10BC704749B1CCF143
:10058000200421FA04F411FA0CF118BF01212143CF
:100590000843A3EB0C01CB1D4FEA00614FEA10208A
:1005A00042BF002010BC704700EBC350104400292C
:1005B000A4BF10BC7047401C490008BF20F00100D8
:1005C00010BC704710B5141E73F1000408DA401C0B
:1005D00041F1000192185B411A4301D120F0010062
:1005E00010BD2DE9F04D92469B4611B1B1FA81F252
:1005F00002E0B0FA80F220329046FFF78DFF044609
:100600000F4640EA0A0041EA0B0153465A460843A6
:1006100013D0114653EA010019D0C8F140025046E8
:10062000FFF789FF05460E46504659464246FFF7FA
:1006300073FF084305D0012004E020463946BDE899
:10064000F08D0020054346EAE0762C4337430A98B4
:100650006305E40AA0EB08000022FD0A44EA4754BF
:100660000A3002D500200146E9E701051019694169
:10067000DDE9084500196941BDE8F04DA2E72DE923
:10068000FE4F804681EA0300C00F0C46009021F027
:10069000004123F00045B8EB0200A94105D24046D5
:1006A000214690461C460B46024623F0004010436C
:1006B00047D0270DC7F30A00C3F30A510290401A2E
:1006C000019040286BDAC3F3130040F4801B0098BC
:1006D000924620B10023D2EB030A63EB0B0B019887
:1006E0005946C0F140025046FFF716FF06460D4638
:1006F00050465946019A00F01BF910EB0800614181
:10070000002487EA115284EAE7731A4340D0009A22
:1007100062B3019A012A4FEA075215DC001B61EB14
:1007200002014FF0004202EA0752CDE90042001CEC
:1007300041F5801132462B46FFF753FF03B0BDE869
:10074000F08F40462146F9E7001B61EB0201001CD7
:1007500041F5801300185B412018A2F5001747EB04
:10076000030140EAD570B6196D4111E06D084FEAFA
:10077000360645EAC0754FEA0752001B61EB0201DD
:10078000001C41F5801149084FEA30000019514121
:1007900032462B4603B0BDE8F04FFFF713BF009879
:1007A000012240000023D0EB020263EBE0730098CB
:1007B00021464FEAE074B8EB000061EB0401E9E781
:1007C00083F000435BE781F0004158E72DE9F04DED
:1007D00081EA030404F0004B21F0004514464FF079
:1007E000000A23F0004150EA050220D054EA010239
:1007F0001DD0C5F30A570246C5F31303C1F3130016
:10080000C1F30A5640F4801543F48013A7EB0608A1
:10081000101BD64608F2FD3873EB050002D308F131
:10082000010801E092185B41B8F1000F03DA0020E3
:100830000146BDE8F08D00204FF480110646844645
:100840000EE0171B73EB050705D3121B63EB0503C3
:1008500006434CEA010C49084FEA300092185B410C
:1008600050EA0107EDD152EA030012D082EA0400F7
:1008700083EA0501084305D0101BAB4106D20122D3
:10088000002306E000224FF0004302E06FF0010277
:1008900053101AEB06004CEB085110EB0A0041EB29
:1008A0000B01BDE8F04DFFF78DBEC1F30A52C1F355
:1008B000130140F2FF3341F480119A4202DA002022
:1008C0000146704740F233439A42A2F2334202DCBF
:1008D0005242FFF730BEFFF71FBE000030B5041EC6
:1008E00071F1000404DB4FF00044404264EB01016D
:1008F000141E73F1000405DB1C464FF00043524206
:1009000063EB0403994208BF904230BD064C074D8B
:1009100006E0E06840F0010394E8070098471034CF
:10092000AC42F6D3FFF734FCB8690008D869000878
:10093000202A06DBCB17203A41FA02F043EAE073A3
:1009400006E041FA02F3D040C2F120029140084390
:100950001946704710B50146806B026C12F0500FBB
:1009600005D0026CD20626D500F0DAFC10BD016C71
:1009700041F40071016401688A6812F0405F17D188
:10098000027EAAB9CA6A12F4700F02D08A685205B0
:100990000ED44A6822F020024A60016C21F4807172
:1009A0000164016CC90403D4016C41F001010164CC
:1009B00000F0B4FC10BD806BC26CBDE8104008466E
:1009C000104710B5806B40210164416C41F0040177
:1009D000416400F0A5FC10BD10B5806B00F09FFCD9
:1009E00010BD0000464910B54A6822F440324A6002
:1009F0004A6843681A434A6001684A6822F4807270
:100A00004A6001684A68036942EA03224A60016851
:100A10004A6822F040724A6001684A6883681A4353
:100A20004A6001688A6822F400628A6001688A6804
:100A3000C3681A438A60816A6FF07062D1420168AC
:100A40008A6822F070628A6001688A680CD0836AC2
:100A50001A438A6001688A6822F040528A600168FD
:100A60008A68C36A1A4301E022F040528A60016832
:100A70008A6822F002028A6001688A68037E42EA7C
:100A800043028A6090F82010002901684A680FD05C
:100A900042F400624A6001684A6822F460424A6097
:100AA00001684A68174C436A04EB43331A4301E078
:100AB00022F400624A600168CA6A22F47002CA62C3
:100AC0000168CA6A838B104C04EB03531A43CA6251
:100AD00001688A6822F400728A6001688A6890F866
:100AE000303042EA43228A6001688A6822F48062D8
:100AF0008A6001688A68406942EA8020886010BD87
:100B00000023014000E0FFFF0000F0FF10B50122CC
:100B10000C490D4802F0A0F901220C490C4802F0E2
:100B20009BF901220B490C4802F096F902F008FFEC
:100B300000F00CFA00F094F902F0AAFCBDE81040B5
:100B400002F064BAB900002054060020BA00002068
:100B500098060020BB000020DC060020FEE7000015
:100B60000648016841F0807101600548002141603C
:100B7000016841F00101016070470000FCED00E0F8
:100B8000001000E011B50022FFF7EAFF0B480C4906
:100B90000C4C0068B0FBF1F3009861684343606857
:100BA0008842FCD002D9A0EB010102E06FEA01010A
:100BB00001440A4401469A42F1D318BD20000020A6
:100BC00040420F00001000E0054910B501200870F8
:100BD000044800F059FDBDE81040034800F0C2BCD5
:100BE000AC0000200C050020C4040020016818237C
:100BF000CAB2103AB2FBF3F2054B6FF30901032AB4
:100C00009B5CC36500D9091D8165084670470000DB
:100C10000C69000810B5014600208B698A6A4FF004
:100C2000C07453B1B3F5005F15D072B1012A0CD076
:100C3000022A0AD0032A09D104E01AB1012A06D0F7
:100C4000022A03D1C96AC90100D5012010BDC96AB1
:100C5000A142FAD010BD002AF7D0012AF2D0022A10
:100C6000F3D0032AF3D010BD30B50468256825F40D
:100C700080252560046863608368402B036803D087
:100C800099600068C26030BD9A600068C16030BD84
:100C900000B587B014216846FFF73CFB0B480021E4
:100CA000026842F010020260006800F01000059037
:100CB0000420CDE900010120029003200390694641
:100CC000034800F065FE07B000BD00003038024068
:100CD0000010024000B587B014216846FFF71AFBE8
:100CE0000A48016841F0100101600068694600F09F
:100CF0001000059004200090012001900290032034
:100D00000390034800F044FE07B000BD30380240B5
:100D100000100240044B08B1012200E0002204212F
:100D2000184600F032BF000000100240704700007B
:100D300070B50024FFF7ACFF124D04E0641CE4B270
:100D40000120FFF71FFF0421284600F019FF10B112
:100D5000642CF3D30FE0642C0DD2002404E0641C57
:100D6000E4B20120FFF70EFF0421284600F008FF3F
:100D700018B1F02C04D3012070BDF02CEFD3FAE7AA
:100D8000002070BD0010024070B500255FF0010426
:100D900000F0A2F8012806D0A543600010F0FF047F
:100DA000F6D1284670BD2543F7E7000070B505462B
:100DB0005FF00104FFF78EFF25424FF0000009D1DC
:100DC000FFF7A8FF4620FFF7DDFE0120FFF7A2FF97
:100DD000022008E0FFF79EFF0920FFF7D3FE012065
:100DE000FFF798FF3720FFF7CDFE600010F0FF04FB
:100DF000E0D170BD10B52DED028B00F089F8FFF742
:100E000097FFCC20FFF7D2FF4420FFF7CFFF00F081
:100E10007FF8FFF78DFFCC20FFF7C8FFBE20FFF75C
:100E2000C5FFFFF7B1FF0446FFF7AEFF000201B2B6
:100E30009FED098B51EA040001D5C043401CFFF728
:100E400008FB53EC182BFFF792FAFFF733FBBDECCE
:100E5000028B00EE100A10BD000000000000B03F41
:100E600070B500F055F8FFF763FF04464FF4FA75CC
:100E7000284600F07BFD24B1BDE8704008A002F0D8
:100E8000FFBF0EA002F0FCFF0A2000F06FFD0BA0D8
:100E900002F0DEFF2846BDE8704000F067BD0000AC
:100EA00044533130423230E5889DE5A78BE58C967E
:100EB000E5A4B1E8B4A55C720A00000044533130E7
:100EC000423230E5889DE5A78BE58C96E68890E573
:100ED0008A9F5C720A00000010B5FFF7FBFE00203D
:100EE000FFF718FF0F20FFF74DFEFFF7D1FE04219B
:100EF000064800F045FE012805D000243220FFF707
:100F000041FE204610BD0124F8E700000010024019
:100F100010B5FFF7DFFE0020FFF7FCFE40F2EE20E9
:100F2000FFF730FE0120FFF7F5FEBDE810400F206F
:100F3000FFF728BE04480021A0F8F611A0F8F81128
:100F40004FF4FA71FFF7E6B95450002010B5FFF7DF
:100F5000F1FF4FF4FA7402E0204600F007FD25A1EE
:100F600025A000F0C9F80028F6D125A002F088FFDE
:100F700002E0204600F0FAFC1EA125A000F0BCF81B
:100F80000028F6D126A002F07BFF02E0204600F008
:100F9000EDFC18A127A000F0AFF80028F6D129A099
:100FA00002F06EFF02E0204600F0E0FC2AA12CA037
:100FB00000F0A2F80028F6D131A002F061FF35A1BF
:100FC00036A000F099F80028F9D1204600F0CEFCB8
:100FD0003DA002F055FF42A002F052FF45480188B3
:100FE000143101803EA002F033FF2046BDE81040DE
:100FF00000F0BCBC4F4B000041540D0A0000000043
:101000004154CFECD3A6B3C9B9A60D0A0000000025
:1010100041542B43574D4F44453D310D0A000000CC
:1010200041542B43574D4F4445CFECD3A6B3C9B9D8
:10103000A60D0A0041542B4357444843503D312CE0
:10104000310D0A0041542B435744484350CFECD351
:10105000A6B3C9B9A60D0A00474F54204950000055
:1010600041542B43574A41503D2241535553222C62
:101070002231323334353637383930220D0A000008
:1010800041542B43574A4150CFECD3A6B3C9B9A61C
:101090000D0A0000434F4E4E4543540041542B432C
:1010A000495053544152543D22544350222C223132
:1010B00039322E3136382E3130302E313734222C21
:1010C000393939390D0A000041542B4349505354E2
:1010D000415254CFECD3A6B3C9B9A60D0A00000003
:1010E00045535038323636B3F5CABCBBAFB3C9B975
:1010F000A60D0A004450002070B50E460546642433
:10110000FFF718FF2846FFF722F982B24FF6FF7368
:1011100029460C4801F01EFF0FE000BF00F042F826
:1011200040B931460848FFF700F918B1FFF702FF50
:10113000002070BD142000F019FC641EE4B2EDD252
:10114000012070BD540600205450002010B5FEB0A0
:101150000446FFF7EFFE2046FFF7F9F802460BA121
:10116000684602F09DFE0DA16846FFF7C5FF002806
:1011700009D12046FFF7EBF882B24FF6FF73214604
:10118000074801F0E7FE7EB010BD000041542B433C
:10119000495053454E443D25640D0A004F4B000015
:1011A000540600200848B0F8F61141B1B0F8F82113
:1011B000914206D10021A0F8F6110846704701209F
:1011C0007047A0F8F811FAE75450002072B6FEE715
:1011D00078B50024009490F83C20012A19D001220F
:1011E00080F83C200A6807230568092A13D9EE68AD
:1011F0000A3A02EB420293409E43EE600B788A6803
:101200000A3B03EB43039A400368DD682A43DA6034
:1012100010E0022078BD2E6902EB420293409E430B
:101220002E610B788A6803EB43039A4003681D69BB
:101230002A431A614A681F23072A13D205686E6B76
:10124000521E02EB820293409E436E630B790A8822
:101250005B1E92B203EB83039A4003685D6B2A43E3
:101260005A6327E005680D2A12D22E6BD21F02EBBB
:10127000820293409E432E630B790A88DB1F92B251
:1012800003EB83039A4003681D6B2A431A6311E042
:10129000EE6A0D3A02EB820293409E43EE620B79B6
:1012A0000A880D3B92B203EB83039A400368DD6A20
:1012B0002A43DA62164B0568144A9D4206D10D682E
:1012C000122D03D1556845F48005556005689D428F
:1012D00018D10B68102B01D0112B13D1536843F494
:1012E00000035360096810290CD10A490A4A0968A9
:1012F000B1FBF2F101EB8101490000E0491E0091D0
:101300000029FBD180F83C40002078BD002301403B
:10131000002001402000002040420F00704770472D
:10132000704770B504004FF0000503D0206C002614
:1013300010B107E0012070BD204600F01DF8666482
:1013400084F83C60206CC00610D4206C20F48850D7
:1013500040F0020020642046FFF744FB6664206CE6
:1013600020F0020040F00100206400E0012584F834
:101370003C60284670BD000070B586B0064614215A
:101380006846FEF7C7FF1D493068884234D11C48C3
:101390000025016841F480710160006800F48070EC
:1013A000059017481438016841F001010160006898
:1013B000694600F001000590022000900320CDE96D
:1013C0000105104800F0E4FA104C0F48C4E900058C
:1013D0000015A560C4E90350800060618000A06131
:1013E0008011C4E907052046656200F01DFA08B1C6
:1013F000FFF7ECFEB463A66306B070BD00200140A9
:101400004438024000000240106402400C050020F5
:10141000F8B5044600200E46009094F83C100129CF
:1014200007D0012184F83C1021688B68DB0702D0CB
:1014300011E00220F8BD8B6843F001038B60404946
:10144000404B0968B1FBF3F101EB410100E0491E9B
:1014500000910029FBD121688B68DB0503D58B68DF
:1014600023F480738B6021688B68DB075DD0236C6D
:1014700040F20165AB4343F4807323644968490536
:1014800005D5216C21F4005141F480512164216C77
:10149000C90404D5616C21F00601616400E0606458
:1014A00084F83C00A16B2948274DC863A16B2848EC
:1014B0000864A16B2748C86421686FF022000860A7
:1014C0002068416841F0806141602068816841F492
:1014D000807181602168134632464C31A06B00F068
:1014E0000DFA68681C49C006206806D0884224D1DD
:1014F000816811F0405F13D01FE08842F8D0174A8E
:10150000904203D1D1F80423D206F1D0144A90427C
:1015100013D1D1F8041301F01F011029E8D30CE016
:10152000816841F08041816007E0206C40F010004C
:101530002064606C40F0010060640020F8BD000091
:101540002000002040420F00002301405509000800
:10155000D9090008C309000800200140002101400A
:101560000022014010B50446002094F83C100129E7
:101570000CD0012184F83C1021688A6822F0010215
:101580008A6021688A68D20702D01DE0022010BD5F
:101590008A6822F480728A60A16B91F83520022A51
:1015A00007D1084600F014F818B1216C41F0400151
:1015B000216421684A6822F080624A60216C21F42B
:1015C000885141F001012164002184F83C1010BDD4
:1015D0002DE9F0410446876D00F0DCFA064694F8E8
:1015E00035000025022806D08020606584F834503C
:1015F0000120BDE8F0812068016821F0160101603A
:101600002068416921F080014161206C08B9A06C1B
:1016100020B12068016821F008010160206801689C
:1016200021F0010101600CE000F0B4FA801B0528F4
:1016300007D920206065032084F8350084F83450F1
:10164000D7E720680068C007EED194F85C103F200F
:101650008840B860012084F8350084F834500020B8
:10166000C7E790F83510022903D080214165012099
:101670007047052180F835100068016821F00101EC
:1016800001600020704700002DE9F84304464FF048
:101690000009CDF8009063484FF41651A56D00681D
:1016A000B0FBF1F72E6894F85C10082000FA01F105
:1016B00031420FD021680A6852070BD50A6822F020
:1016C00004020A6094F85C108840A860606D40F0E5
:1016D0000100606594F85C104FF0010808FA01F011
:1016E000304208D021684969090604D5A860606DB8
:1016F00040F00200606594F85C100420884030429D
:1017000008D021680968890704D5A860606D40F099
:101710000400606594F85C1010208840304218D0B6
:1017200021680968090714D5A86020680168490381
:1017300004D50068000308D5A16C07E00168C9055D
:1017400003D4016821F008010160216C09B1204631
:10175000884794F85C1020208840304231D02168BE
:101760000968C9062DD5A86094F8350005282068B9
:10177000016806D0490347D5006800031DD4616C99
:101780001CE021F0160101602068416921F0800110
:101790004161206C08B9A06C20B12068016821F07B
:1017A0000801016094F85C103F208840A86084F82C
:1017B000358084F83490216D1FE0E16B09B120463B
:1017C0008847606D00282BD0606DC00714D00520BD
:1017D00084F835002068016821F00101016000985B
:1017E000401C0090B84203D820680068C007F6D1BA
:1017F00084F8358084F83490E16C002910D001B071
:101800002046BDE8F04308470168C905D5D4016802
:1018100021F01001016084F8358084F83490CCE721
:10182000BDE8F883200000202DE9F041044600F0D7
:10183000B1F906465CB1022084F83500002584F831
:1018400034502068016821F0010101600DE00120A1
:10185000BDE8F08100F09EF9801B052805D9202005
:101860006065032084F83500F2E720680068C0074F
:10187000F0D12268116820480140D4E901031843DF
:10188000D4E903363343184363691843A369184303
:10189000E3691843236A18430843616A042903D1A2
:1018A000D4E90B1319430843106020684069666A45
:1018B00020F0070130460E43012704280CD1A06A0E
:1018C0000643E06A40B12046FFF7A4F920B140206A
:1018D000606584F83570BAE7206846612046FFF7F6
:1018E00085F994F85C203F2191408160656584F81A
:1018F00035700020ACE700003F8010F02DE9F0418A
:101900000446866D90F83400002501280DD0012092
:1019100084F8340094F835700020012F07D084F843
:10192000340002252846BDE8F0810220FBE70227AB
:1019300084F8357060652046FFF796F994F85C10DE
:101940003F208840B0602068016841F016010160C6
:10195000206C20B12068016841F008010160206816
:10196000016841F001010160DCE7000070B5044648
:1019700000F010F90546601C02D0044800780444C9
:1019800000F008F9401BA042FAD370BD14000020FB
:101990002DE9F84FDFF8BCA10022012503264FF006
:1019A0000F090AF1040BAAF1040E00BF0B6805FA37
:1019B00002F42340A34270D10F7907F00307012FEF
:1019C00001D0022F16D187684FEA420806FA08FCB8
:1019D00027EA0C07D1F80CC00CFA08FC4CEA070CFB
:1019E000C0F808C04768A7430C79C4F300149440BA
:1019F0003C4344600C79E443A4070AD0C4684FEA2E
:101A0000420C06FA0CF7BC438F6807FA0CF7274321
:101A1000C7600C7904F00304022C12D1D40800EB47
:101A2000840CDCF820405707FF0E09FA07F824EA77
:101A30000804D1F8108008FA07F848EA0408CCF83E
:101A4000208004684FEA420C06FA0CF7BC430F7979
:101A500007F0030707FA0CF7274307604C6814F4F4
:101A6000403F70D03C4C276847F48047276024688B
:101A700022F0030704F480440094384C07EB040C74
:101A8000DCF8084897074FEA177809FA08F7BC43CB
:101A9000334FB84202D1002724E054E0314FB8421E
:101AA00001D101271EE0304FB84201D1022719E0D1
:101AB0002E4FB84201D1032714E02D4FB84201D177
:101AC00004270FE02B4FB84201D105270AE02A4F27
:101AD000B84201D1062705E0284FB84201D10727B7
:101AE00000E0082707FA08F72743CCF80878DAF867
:101AF00000405746D1F804C09C435FEACC2C00D587
:101B00001C433C60DBF800405F46D1F804C09C43B6
:101B10005FEA8C2C00D51C433C60DEF80040774621
:101B2000D1F804C09C435FEA8C3C00D51C433C6068
:101B3000084F083F3C68D1F804C09C435FEACC3CA6
:101B400000D51C433C60521C102AFFF42FAFBDE8A7
:101B5000F88F0000083C014044380240003001404A
:101B6000000002400004024000080240000C024055
:101B7000001002400014024000180240001C024005
:101B80000069084000D0012070470AB181617047A8
:101B90000904FBE70148806870470000140000203A
:101BA0000248816802781144816070471400002067
:101BB0000B4810B5016841F400710160016841F4FF
:101BC00080610160016841F480710160032000F0D0
:101BD00099F80F2000F006F800F04AF8002010BD38
:101BE000003C024030B505461C4887B0002401681F
:101BF00041F001010160006806A900F001000090B9
:101C000001A800F02BF900F059F915494000B0FB8C
:101C1000F1F11548134A491E026040F2E732C0E96B
:101C20000324C0E90114846100F020FD040012D1F6
:101C30000D4800F08FFD04000DD1192000F034F89C
:101C4000102D07D200222946192000F03BF8074842
:101C5000056000E0012407B0204630BD4438024052
:101C600040420F0000000140200700201800002023
:101C70000C4882B0016841F480410160006800F4C2
:101C8000804000900748001F016841F080510160CA
:101C90000068002200F0805000900F21901E02B0DA
:101CA00000F010B844380240002809DB00F01F02A1
:101CB000012191404009800000F1E020C0F80011AE
:101CC00070470000F0B40E4B1B680C46C3F30223B0
:101CD000C3F10705042D00D90425191D072901D2D8
:101CE000002300E0DB1E012606FA05F1491E214013
:101CF00099409E40761E16403143F0BC02F0FAB87F
:101D00000CED00E0064900F0070208684FF6FF03FB
:101D1000184040EA0220034A104308607047000060
:101D20000CED00E00000FA052DE9F0470E46050035
:101D300065D0DFF81481D8F80000F7B200F0070092
:101D4000B04207D288F80070D8F8000000F0070011
:101D5000B04254D128683D4C810712D5400703D5C5
:101D6000206840F4E05020602878000703D5206800
:101D700040F4604020602068A96820F0F00008432B
:101D800020602878C0072DD03049686808390128BC
:101D900012D0022813D0032811D00968890700291E
:101DA0002DDA216821F0030101432160FFF7F2FEE3
:101DB000814641F2883A0EE009688903EFE7096835
:101DC0008901ECE7FFF7E6FEA0EB0901514502D9D6
:101DD0000320BDE8F0872068696800F00C00B0EBD4
:101DE000810FEFD1D8F80010404601F00701B14251
:101DF00007D90770006800F00700B04201D0012049
:101E0000E7E72878400705D52068E96820F4E05026
:101E1000084320602878000706D52068296920F447
:101E2000604040EAC100206000F058F82168084A8C
:101E3000C1F30311515CC8400649086006480068B8
:101E4000FFF7D0FE0020C4E7003C02400838024003
:101E50001469000820000020180000200F220260F2
:101E60000C4A136803F003034360136803F0F003A4
:101E70008360136803F4E053C36012684FF4E053C7
:101E800003EAD20202610448006800F0070008601B
:101E90007047000008380240003C024004480549F1
:101EA00000680968044AC1F38221515CC840704748
:101EB0002000002008380240246900080448054931
:101EC00000680968044AC1F34231515CC840704758
:101ED000200000200838024024690008154810B589
:101EE000006810F00C02144813D04110042A0FD0DF
:101EF000082A0ED10F4C241F2268236802F03F02EB
:101F00005B0207D52068C0F38810A0FB010106E042
:101F1000084610BD2168C1F38811A1FB0001002310
:101F2000FEF7AEF92168C1F30141491C4900B0FB3D
:101F3000F1F010BD083802400024F4002DE9F84FFC
:101F400004006ED02078DFF84C93C007A9F1040597
:101F50004AD009F104000168C1F38101012908D0C8
:101F60000068C0F3810002280AD1D9F800004002BD
:101F700006D52868800337D560680028E1D033E0B3
:101F80006068B0F5803F10D0B0F5A02F286810D061
:101F900020F480302860286820F480202860606861
:101FA000A8B1FFF7F7FD06460DE0286840F4803041
:101FB000F4E740F480202860F7E700BFFFF7EAFD70
:101FC000801B642873D828688003F7D50CE0FFF7DE
:101FD000E1FD064605E000BFFFF7DCFD801B64283D
:101FE000F0D828688003F7D42078DFF8AC82800727
:101FF0004FF0000A3ED5A748001D016811F00C0FF4
:1020000008D00068C0F3810002280BD1D9F8000085
:10201000400207D42868800716D5E068012800D15F
:1020200012E033E1E068B8B10120C8F80000FFF722
:10203000B1FD064605E000BFFFF7ACFD801B02289E
:10204000C0D828688007F7D52868216920F0F800F3
:1020500040EAC10028600DE0C8F800A0FFF79AFD33
:10206000064604E0FFF796FD801B02281FD828686B
:102070008007F7D42078000722D5864F874861690A
:10208000703771B101210160FFF784FD064604E05D
:10209000FFF780FD801B022809D838688007F7D534
:1020A0000EE0C0F800A0FFF775FD064605E082E0EF
:1020B000FFF770FD801B02287DD838688007F7D4B1
:1020C0002078400768D5DFF8CCB100270BF13C0B36
:1020D000DBF80000C0000BD4DBF8001041F08051A9
:1020E000CBF80010DBF80000012700F080500090D2
:1020F0006B4E3068C00510D4306840F4807030609A
:10210000FFF748FD009005E0FFF744FD0099401AF5
:10211000022850D83068C005F6D55E4EA0686C36EF
:1021200001280FD00528306810D020F00100306061
:10213000306820F004003060A068B8B1FFF72AFDD5
:1021400000900FE0306840F00100F4E740F0040038
:102150003060F7E7FFF71EFD0099411A41F2883021
:10216000814266D830688007F4D50EE0FFF712FD93
:10217000009007E0FFF70EFD0099411A41F2883008
:10218000814256D830688007F4D42FB1DBF80010B4
:1021900021F08051CBF80010A069C8B33D49091D5A
:1021A0000968C1F3810102294AD00228504607D0AC
:1021B000C8F8600000E03CE0FFF7ECFC04463BE0C0
:1021C0004746C8F86000FFF7E5FC064605E000BF9B
:1021D000FFF7E0FC801B02282BD828688001F7D489
:1021E000D4E907010843A16A2E4A490802EB0141DC
:1021F000626A41EA8211084394F82C1040EA0161B6
:10220000C9F8001001203866FFF7C4FC044606E058
:102210003EE000BFFFF7BEFC001B022809D828687B
:102220008001F7D534E000BFFFF7B4FC001B0228A3
:1022300002D90320BDE8F88F28688001F4D427E094
:102240000128F7D0D9F80000E26900F4800191423A
:102250001CD1226A00F03F01914217D147F6C071AC
:10226000626A0140B1EB821F10D1A26A4FF0FF33C6
:1022700000F4403103EB5202B1EB024F06D194F867
:102280002C1000F07060B0EB016F01D00120D1E79D
:102290000020CFE70438024000004742800E47424A
:1022A000007000400000FFFF70B5040009D0606AB4
:1022B000002540B125616561A56294F8510040B1E7
:1022C0000CE0012070BD6068B0F5827FF4D0E5615C
:1022D000F2E784F85050204600F044F8022084F8D9
:1022E00051002068016821F040010160A088218927
:1022F00000F4827001F404410843A18901F40061F3
:102300000843217C01F002010843217D01F0010115
:102310000843218B01F400710843217F01F038014B
:10232000084394F8201001F080010843218D01F446
:102330000051084321680860A069042101EA1040A7
:1023400094F8241001F010010843216848602068C7
:10235000C16921F40061C1616565012084F8510003
:10236000002070BDF0B587B0044614216846FDF723
:10237000D1FF1C492068884232D11B4800240168E3
:1023800041F480410160006800F4804005901648E7
:102390001038016841F004010160016801F0040196
:1023A0000591016841F0020101600068022500F01A
:1023B000020005900C20CDE9000502AA032605279E
:1023C00082E8D00069460948FFF7E2FA2803CDE920
:1023D000000502AA694682E8D0000548FFF7D8FA4E
:1023E00007B0F0BD0038004040380240000802400D
:1023F000000402402DE9F84F044690F850000027F1
:102400000A9E1D4692468B464FF0010901280ED0C8
:10241000012084F85000FFF7BDFB804694F851007E
:10242000616801280CD0B1F5827F07D102E002205B
:10243000BDE8F88FA16809B9042801D00227C2E0DD
:10244000BBF1000F27D0BAF1000F24D01DB394F8D0
:102450005100042802D0052084F851000020606556
:10246000C4F838A0E587A587C4F830B0E586A5860E
:102470002064606420680168490603D4016841F063
:1024800040010160E068B0F5006F606805D0E8B316
:10249000012D46D07FE0012795E008B1012D39D10B
:1024A000206B21680088C860206B801C2063E08E50
:1024B000401EE0862EE02068816889070FD5E18EF6
:1024C00069B1B9F1010F0AD1216B0988C160206B94
:1024D000801C2063E08E401EE0864FF000092068DB
:1024E0008168C9070CD0E18F51B1C068A16B088029
:1024F000A06B801CA063E08F401EE0874FF00109B5
:10250000FFF748FBA0EB0800B04200E009E001D370
:10251000701C50D1E08E0028CDD1E08F0028CAD1A8
:102520003FE0206B216800780873206B401C20631B
:10253000E08E401EE0862EE02068816889070FD576
:10254000E18E69B1B9F1010F0AD1216B09780173EC
:10255000206B401C2063E08E401EE0864FF0000997
:1025600020688168C9070CD0E18F51B1C068A16BA8
:102570000870A06B401CA063E08F401EE0874FF006
:102580000109FFF707FBA0EB0800B04202D3701C63
:1025900001D010E07EB1E08E0028CDD1E08F002880
:1025A000CAD142463146204601F02AF828B1012717
:1025B0002020606507E0032705E0A06818B92068BF
:1025C000C16880680090012084F85100002084F8E0
:1025D000500038462CE770477047000070B590F8FF
:1025E0003C20012A32D0012480F83C40022280F8AD
:1025F0003D2003685A689D6822F070060A683243DD
:102600005A60134B02689A4214D0B2F1804F11D035
:10261000104B9A420ED0104B9A420BD00F4B9A425D
:1026200008D00F4B9A4205D00E4B9A4202D00E4B67
:102630009A4204D1496825F080031943916080F8DB
:102640003D40002180F83C10084670BD022070BD5E
:10265000000001400004004000080040000C004061
:1026600000040140004001400018004010B5040083
:1026700003D094F83D0010B107E0012010BD002008
:1026800084F83C00204600F01FF8022084F83D004A
:10269000211D206801F08AF9012084F8460084F8A1
:1026A0003E0084F83F0084F8400084F8410084F83C
:1026B000420084F8430084F8440084F8450084F81C
:1026C0003D00002010BD000010B586B00446142166
:1026D0006846FDF71FFE21681B48B1F1804F14D0FA
:1026E0001A4A91420FD1016841F02001016000684F
:1026F000002200F02000059005213720FFF7E2FAC4
:102700003720FFF7D1FA06B010BD016841F0010192
:102710000160006800F0010005900B481038016866
:1027200041F0010101600068694600F00100059078
:10273000202000900220019002900390012004903C
:102740000348FFF725F9DEE7403802400014004057
:102750000000024090F83D10012901D0012070478F
:10276000022180F83D100168CA6842F00102CA6087
:1027700000681149884214D0B0F1804F11D00F4940
:1027800088420ED00E4988420BD00E49884208D0AC
:102790000D49884205D00D49884202D00C49884233
:1027A00004D1816801F00701062903D0016841F0D6
:1027B000010101600020704700000140000400405A
:1027C00000080040000C00400004014000400140AF
:1027D0000018004070B5044690F83C000025012820
:1027E00017D0012684F83C60022084F83D00206860
:1027F000826822F0770222F47F42826008685028C3
:1028000038D00DDC20284FD005DC90B3102811D132
:102810004AE0022070BD302846D040280AD13BE073
:1028200060282FD070280DD0B0F5805F03D0B0F5B0
:10283000005F12D0012584F83D60002084F83C0040
:10284000284670BDCB68D1E90121206801F012F95A
:102850002068816841F0770109E0CB68D1E9012166
:10286000206801F007F92068816841F480418160A7
:10287000E1E719E0CA684968206801F00DF95021C4
:10288000206806E0CA684968206801F016F96021EE
:10289000206801F0F9F8CEE7CA684968206801F0BD
:1028A000FBF840212068F4E7226801461046F0E773
:1028B000704770B50446006801694FF00005C943D0
:1028C000890715D4C168C943890711D4E91E01617C
:1028D00001202077206880698007204602D0FFF71A
:1028E000E7FF04E000F098F8204600F096F825771E
:1028F00020680169C943490717D4C168C94349071A
:1029000013D46FF0040101610220207720688069F0
:1029100010F4407F204602D0FFF7CAFF04E000F029
:102920007BF8204600F079F8257720680169C943D3
:10293000090716D4C168C943090712D46FF008010A
:102940000161042020772068C0698007204602D0FA
:10295000FFF7AEFF04E000F05FF8204600F05DF8FE
:10296000257720680169C943C90617D4C168C943DE
:10297000C90613D46FF01001016108202077206888
:10298000C06910F4407F204602D0FFF791FF04E0B9
:1029900000F042F8204600F040F8257720680169F1
:1029A000C943C90708D1C168C943C90704D1891EF1
:1029B0000161204600F032F820680169C943090628
:1029C00009D4C168C943090605D46FF080010161CB
:1029D0002046FFF700FE20680169C943490609D473
:1029E000C168C943490605D46FF040010161204622
:1029F00000F03AF820680169C94389060BD4C16820
:102A0000C943890607D46FF0200101612046BDE863
:102A10007040FFF7E1BD70BD7047704710B50446C8
:102A200000680C49884201D1FFF7BAF80A4884428D
:102A30000ED10A4801684A6A0948428000224A6267
:102A40000121017007480068BDE8104002F041B85C
:102A500010BD0000000001400C060020C40500204D
:102A6000FC5A00201000002070477047704700009B
:102A7000F8B5016804460868CA684B6910F00F0F82
:102A80004FF0000559D003F0010602F49077374368
:102A900065D0C10705D0D10503D5216C41F00101F6
:102AA0002164410705D5D90703D0216C41F002010B
:102AB0002164810705D5D90703D0216C41F00401B9
:102AC0002164010707D502F02001314303D0216CB6
:102AD00041F008012164216C00293AD0800604D518
:102AE000900602D5204601F05EF820684069216C0E
:102AF000C0F38010090700D460B3204601F02CF821
:102B000020684069400621D52068143050E8001F35
:102B100021F0400140E80012002AF5D1A06BA8B1D5
:102B20006C490165A06BFEF79CFD002811D0A06BDD
:102B3000016D01B0BDE8F040084783060FD593064C
:102B40000DD52046BDE8F84001F02DB82046FFF72E
:102B50008DFFF8BD2046FFF789FF2564F8BD266B81
:102B60002023012E79D1C60677D5D60675D50868FB
:102B7000486800904869400640D5A16B08684068E5
:102B80000004000CEAD0A28D8242E7D9E085C86932
:102B9000B0F5807F2DD020680C3050E8001F21F464
:102BA000807140E80012002AF5D12068143050E806
:102BB000001F21F0010140E80012002AF5D1206831
:102BC000143050E8001F21F0400140E80012002AB4
:102BD000F5D184F83E30256320680C3050E8001FA2
:102BE00021F0100140E80012002AF5D1A06BFEF799
:102BF000EFFCA08DE18D401A81B229E0A08DE18D1E
:102C0000401A81B2E08D0028A8D00029A6D0206803
:102C10000C3050E8002F22F4907240E80026002E7D
:102C2000F5D12068143050E8002F22F0010240E86E
:102C30000026002EF5D184F83E30256320680C3044
:102C400050E8002F22F0100240E80023002BF5D1BD
:102C50002046FFF70AFFF8BDFFE705062BD515064E
:102C600029D594F83D002128F5D1A068B0F5805F02
:102C700001D12069B0B1206A411C2162216800782D
:102C80004860E08C401E0004000CE084E3D1206822
:102C9000C16821F08001C1602068C16841F0400135
:102CA000C160D8E7206A0088C0F308004860206A45
:102CB000801C2062E5E74006CDD55006CBD5CA681A
:102CC000204622F04002CA6084F83D3000F09BF9B3
:102CD000C1E70000493B000870B5040004D094F837
:102CE0003D00002510B106E0012070BD84F83C5085
:102CF000204600F023F8242084F83D002068C168B5
:102D000021F40051C160204600F0AEFF2068016947
:102D100021F4904101612068416921F02A0141615B
:102D20002068C16841F40051C1602564202084F806
:102D30003D0084F83E00002070BD0000F0B587B073
:102D4000044614216846FDF7E5FA3D4B276800224A
:102D50003C490224032507263B489F4221D1394B99
:102D600014331F6847F010071F601B6803F010033F
:102D700005930B6843F001030B60096802AB01F097
:102D8000010105916902CDE9001483E864006946F8
:102D9000FEF7FEFD002205212520FEF793FF2520EA
:102DA00024E0284BDFF8A4C01033674522D11F6808
:102DB00047F400371F601B6803F4003305930B686A
:102DC00043F001030B60096802AF01F001010591B6
:102DD0000C21CDE9001487E864006946FEF7D8FDB0
:102DE000002205212620FEF76DFF2620FEF75CFF5E
:102DF00007B0F0BD16488742FAD1186840F4802029
:102E00001860186800F480200590086840F00200FF
:102E10000860086802AF00F0020005904FF44060BF
:102E2000CDE9000487E8640069460A48FEF7B0FD72
:102E3000002205212720FEF745FF2720D6E70000C6
:102E400000100140303802400000024000440040C1
:102E5000004800400004024090F83E30202B0ED184
:102E600059B152B190F83C30012B08D0012380F8C1
:102E70003C300023036300F07DBF01207047022037
:102E80007047000070B52B490646006809680025A8
:102E9000294C884216D12949B1F8F601B0F5FA7FDC
:102EA00001D3A1F8F651B1F8F62160788854B1F851
:102EB000F6010122401CA1F8F6011F491D48491CDA
:102EC000FFF7CAFF1E4930680968884231D120786F
:102ED0004FF6FF76FF280BD32570FF211948FDF729
:102EE00019FA33460A2218A1154800F033F818E001
:102EF0001449A2780A54401CC2B28818227010F8F3
:102F0000011C0A290DD110F8020C0D2809D13346F5
:102F10000C490B4800F01EF82570FF210948FDF709
:102F2000F9F9BDE8704004490122891C0448FFF703
:102F300093BF70BD54060020B800002054500020FC
:102F400098060020FF570020CAFDBEDDD2E7B3F689
:102F5000000000002DE9F843044690F83D001F46AC
:102F600016460D4620284CD1C5B1BEB194F83C00A0
:102F7000012846D0012084F83C004FF00008C4F836
:102F80004080212084F83D00FEF704FEA68481469F
:102F9000E684A068B0F5805F03D004E00120BDE8BE
:102FA000F883206928B12E465FF0000584F83C8044
:102FB0000EE00026FAE78021204600F0F8FEA0B9D6
:102FC000AEB116F8010B21684860E08C401EE08429
:102FD000E08C4B464FF0000200970028EBD14FF0F9
:102FE0004001204600F0E3FE30B10320D7E735F87A
:102FF000020BC0F30800E6E7202084F83D00002023
:10300000CDE70220CBE77047FEE7000010B508A02F
:1030100000F036FF0B4801881431018004A000F055
:1030200017FFBDE810404FF4FA70FEF79FBC000098
:103030004C6F5261B3F5CABCBBAFB3C9B9A60D0A98
:10304000000000004450002070B50C46054600F01A
:1030500017F820EA04012846BDE8704000F03AB8AD
:1030600010B5064C012211022046FEF78EFD2046C7
:103070000122BDE810405102FEF787BD0004024066
:1030800070B57E2101EA40000B4E40F080044FF401
:103090008075002229463046FEF777FD204600F075
:1030A0009DFA002000F09AFA044601222946304693
:1030B000FEF76BFD204670BD0004024070B50C4663
:1030C0000546FFF7DDFF40EA04012846BDE87040F1
:1030D000AFF300802DE9F0410E467E2101EA400465
:1030E0000A4F4FF48075002229463846FEF74DFD01
:1030F000204600F073FA304600F070FA2946384650
:10310000BDE8F0410122FEF740BD0000000402408E
:103110007FB5002415480094019402941249039449
:10312000016001254FF440310561C0E901140576C5
:1031300080F820400E49C0E90A14C561C46080F8D7
:1031400030404561FEF7EDF808B1FEF73FF8009515
:10315000CDE9015469460548FEF73AF8002801D048
:10316000FEF734F87FBD000000200140C4040020B9
:103170000100000F094808B5016841F480010160B1
:103180000068002200F48000009005213820FEF73E
:1031900099FDBDE808403820FEF786BD3038024072
:1031A00010B50D4801F0FBFB0C4C0B4A0021E06010
:1031B0006C3A0B4801F048FC074A2060483A00216D
:1031C000084801F041FC044A6060243A00210648A6
:1031D00001F03AFCA06010BDFC680008000000206F
:1031E0001137000821370008693700082DE9F04140
:1031F00086B014216846FDF78DF82F480025016838
:1032000041F010010160016801F0100105910168B1
:1032100041F080010160016801F0800105910168C1
:1032200041F004010160016801F0040105910168A9
:1032300041F001010160016801F00101059101689F
:1032400041F00201016000681C4F00F0020005908F
:10325000002204213846FEF798FCDFF864804FF422
:103260004076002231464046FEF78FFC04200124C0
:10327000CDE900040320CDE9024069463846FEF757
:1032800087FB1820CDE90005694602943846FEF711
:103290007FFBCDE90045022569460A480295FEF705
:1032A00077FBCDE9006469464046CDE90245FEF76B
:1032B0006FFB06B0BDE8F0813038024000100240DC
:1032C0000004024000000240104810B50E490160A1
:1032D0004FF48271416000218160C1604FF400723F
:1032E0000161C0E905123022C0E907214162816213
:1032F0000A21C162FEF7D8FF002803D0BDE81040C4
:10330000FDF764BF10BD0000003800406C050020D0
:1033100010B586B0002417480094019402940394D9
:1033200004944FF080410594C0E90014611EC0E987
:10333000024104618461FFF799F908B1FDF746FF86
:103340004FF40050CDE90004029469460948039403
:10335000FFF740FA08B1FDF739FF049404A90548C6
:103360000594FFF73BF9002801D0FDF72FFF06B0C9
:1033700010BD0000C40500201CB500240F480094B7
:103380000D490194016042F2CF01C0E9011442F2FB
:103390000F71C16080218161FFF768F908B1FDF705
:1033A00015FF0094694605480194FFF717F90028B6
:1033B00001D0FDF70BFF1CBD001400400C060020DF
:1033C0000C4810B50A4901604FF4E1314160002119
:1033D00081600C22C160C0E904128161C161FFF704
:1033E0007BFC002803D0BDE81040FDF7EFBE10BD08
:1033F00000100140540600200C4810B50A49016035
:103400004FF4E1314160002181600C22C160C0E9CC
:1034100004128161C161FFF75FFC002803D0BDE8A1
:103420001040FDF7D3BE10BD0044004098060020B8
:103430000C4810B50A4901604FF4E13141600021A8
:1034400081600C22C160C0E904128161C161FFF793
:1034500043FC002803D0BDE81040FDF7B7BE10BD07
:1034600000480040DC060020FEE7FEE703211420B0
:10347000FFF7EABD10B51420FFF702FE800705D163
:103480000321BDE810401420FFF718BE10BD000056
:1034900010B5FFF7E5FD00F05BF8FFF7E7FFFFF77A
:1034A000E9FF00F055F8412000F026F807A000F0F1
:1034B000E7FC0B480188143101800AA000F0C8FC29
:1034C000BDE810404FF4FA70FEF750BA524335325F
:1034D00032B3F5CABCBBAFB3C9B9A60A000000003D
:1034E000445000205243353232B3F5CABCBBAFB3AF
:1034F000C9B9A60D0A00000010B5412826D108213F
:103500000846FFF7A1FD3D211120FFF7E3FD8621CD
:103510001720FFF7DFFD7F212620FFF7DBFD1E21AF
:103520002D20FFF7D7FD00212C20FFF7D3FD8D21A3
:103530002A20FFF7CFFD3E212B20FFF7CBFD0220F5
:10354000FEF714FABDE81040FFF794BF10BD00006D
:1035500070B50122204D540221462846FEF715FB86
:103560000220FEF703FA002221462846FEF70DFB53
:103570000220FEF7FBF9012221462846FEF705FB53
:103580000220FEF7F3F90F210120FFF7A3FD02202F
:10359000FEF7ECF93D211120FFF79CFD1E212D20A7
:1035A000FFF798FD00212C20FFF794FD8D212A20A4
:1035B000FFF790FD3E212B20FFF78CFD40211520C9
:1035C000FFF788FDFFF752FF0220FEF7CFF9BDE8B5
:1035D0007040FFF74FBF00000004024001B582B009
:1035E0000A2000900123044A02A90448FEF702FFC2
:1035F000014800780EBD0000BC0000206C050020D2
:1036000038B504461248134B0068B0FBF3F04FF492
:103610007A73584300906068B0F5827F0DD10B46F5
:10362000009200228021204600F016F870B1606DF3
:1036300040F020006065032038BD009830B1401E86
:10364000009020688068C0430006F6D5002038BD91
:103650002000002000366E012DE9F8431E469146F9
:1036600088460446089DFEF795FA401B351AFEF77A
:1036700091FA074625480068C0F3CB30684338E02C
:10368000701C37D0FEF786FAC01BA84203D215B1D2
:10369000009860B32CE02068416821F0E0014160AF
:1036A0006068B0F5827F0BD1A068B0F5004F02D002
:1036B000B0F5806F04D12068016821F040010160FD
:1036C000A06AB0F5005F09D12068016821F40051BB
:1036D00001602068016841F400510160012084F814
:1036E0005100002084F850000320BDE8F883002535
:1036F000401E00902068816838EA010004D0002153
:103700004945BDD10020F0E70121F9E72000002064
:103710004FF47A7400F0E4F9204601F0DCF8F9E7A0
:103720001CB50E4C4FF47A77E068FCF7B0FE054606
:103730000E466068FCF7ABFE41EC100BCDE900567D
:1037400053EC102B0649074800F0AAFB0548FDF78B
:10375000FDFC384601F0BFF8E6E7000044500020C9
:103760005C690008D0000020064D4FF47A7400BF59
:10377000FDF740FB85ED010A00F066F8204601F0F8
:10378000AAF8F5E74450002010B54FF0E02000699A
:1037900002F08CFE012803D0BDE8104002F082BA8E
:1037A00010BD000030B593B030216846FCF7B2FD83
:1037B00014210CA8FCF7AEFD1D480025016841F05E
:1037C00080510160006800F0805011901948016834
:1037D00041F4804101600068022400F480401190AF
:1037E00001200090000401908001CDE9064008AA64
:1037F0000420A82182E813000B906846FEF79EFB88
:1038000008B172B6FEE70CA90F2081E831004FF431
:10381000A0500F904FF48050109005210CA8FEF797
:1038200083FA002801D072B6FEE713B030BD000065
:1038300040380240007000400248016841F47001C5
:103840000160704788ED00E070B5314C20780128A8
:103850005DD100202F4B2070024601468518401C88
:1038600053F8255032282944F8DB3220B1FBF0F11F
:103870002748801C20F812100088FCF7FBFD9FED04
:10388000261B53EC112BFCF772FD9FED251B53EC0F
:10389000112BFCF76CFDFCF70DFE00EE900A2248A0
:1038A000B3EE091ADFED211AC0ED020A90ED010A0C
:1038B00030EE410AB7EE001A00EE211A84ED011A2B
:1038C00080EE810ADFED1A0A9FED1A1A84ED020AD2
:1038D00060EE200A20EE011A60EE800A60EE800A97
:1038E00041EE400A9FED141A20EE010AB6EE001ACE
:1038F00040EE010AC0ED030A4FF47A7000F0EBFFCE
:10390000BDE87040642203490C48FDF781BD70BDDD
:10391000AC000020385600206666666666660A407F
:10392000000000000000303F445000200AD7A33CB4
:10393000856B054329DC7F43F6585644C4040020B8
:1039400010B5FDF70DF9642209490A48FDF760FD3D
:1039500009A000F095FA0E4801881431018006A0F4
:1039600000F076FABDE810404FF4FA70FDF7FEBFA4
:1039700038560020C4040020544453CBAED6CABCF1
:10398000ECB2E2B3F5CABCBBAFB3C9B9A60D0A002D
:10399000445000200148FEF78CBF000020070020A3
:1039A0000148FEF786BF00000C060020F0B5026853
:1039B000254C264D264E274F274B4FF0804CA042DA
:1039C00009D0604507D0A84205D0B04203D0B84224
:1039D00001D0984204D122F0700E4A6842EA0E02E9
:1039E000A0421BD0604519D0A84217D0B04215D0D4
:1039F000B84213D0984211D0184DA8420ED0184D9D
:103A0000A8420BD0174DA84208D0174DA84205D0A8
:103A1000164DA84202D0164DA84203D122F440759B
:103A2000CA682A434D6922F080022A4302608A68EC
:103A3000C2620A688262A04201D0984201D109693B
:103A4000016301214161F0BD00000140000400401C
:103A500000080040000C004000040140004001400C
:103A6000004401400048014000180040001C004094
:103A70000020004010B5846842EA032224F47F4409
:103A80000A432243826010BD826822F070020A431A
:103A900042F007018160704710B5036A046A24F0A0
:103AA00001040462846924F0F00444EA021423F05F
:103AB0000A020A438461026210BD10B5036A23F052
:103AC000100303628369046A23F4704343EA0232F9
:103AD00024F0A00343EA01118261016210BD0000DD
:103AE00010B50C4C4FF0FF31E06800F02FFF50B9DB
:103AF0004FF400710848FCF70DFC074801F0B6FED2
:103B0000E06800F080FFBDE81040034903A000F02A
:103B1000B7B9000000000020C4020020C8CECEF1DA
:103B2000C3FBB3C60909D7B4CCAC202020D3C5CF82
:103B3000C8BCB6202020CAA3D3E0D5BB202020B12A
:103B4000E0BAC50A25730A0010B5806B0021C18553
:103B5000C184FEF78BFF10BD01680C3151E8002FC6
:103B600022F4907241E80023002BF5D10168143152
:103B700051E8002F22F0010241E80023002BF5D18B
:103B8000016B012909D101680C3151E8002F22F0A5
:103B9000100241E80023002BF5D1202180F83E10CF
:103BA00000210163704708B590F83E10222901D02A
:103BB000022008BD82684FF480539A4201D1016906
:103BC00021B1816A9A421BD04AB10AE00268816A37
:103BD0005268C2F308020A80816A891C08E00269FF
:103BE00072B10268526802F07F020A70816A491C51
:103BF0008162C18D491E0904090CC18503D019E0F9
:103C000002685268F1E70168CA6822F02002CA60BF
:103C10000168CA6822F48072CA6001684A6922F0A9
:103C200001024A61202180F83E10016B012903D076
:103C3000FFF728F9002008BD0021016301680C315D
:103C400051E8002F22F0100241E80023002BF5D1AB
:103C500001680A68D20602D50A6849680091818D18
:103C6000FEF703FFE6E7000070B50446006801694F
:103C7000E26821F44051114301612169A068E269C1
:103C800008436169114308432168CA6849F20C631B
:103C90009A430243CA6020684169A26921F44071D5
:103CA0001143416131492068884202D0304988423D
:103CB00002D1FEF703F901E0FEF7F0F8E269002314
:103CC000192164253226B2F5004F626828D0A0FB86
:103CD0000101930F9200FCF7D3FA0146B0FBF5F017
:103CE0006FF01802504301EB800006EB0010B0FBB0
:103CF000F5F000F0F002B1FBF5F002EB0012B1FBC1
:103D0000F5F06FF01803584301EB800006EB00104C
:103D1000B0FBF5F000F00F0021681044886070BD22
:103D2000A0FB010192185B41FCF7AAFA0146B0FB27
:103D3000F5F00201B1FBF5F06FF01803584301EB09
:103D4000800006EBC000B0FBF5F000F0F80002EBDD
:103D50004002B1FBF5F0584301EB800006EBC000D8
:103D6000B0FBF5F000F00700D6E7000000100140BE
:103D70000014014081628285C285002101642222F3
:103D800080F83E2080F83C10016921B10168CA68C2
:103D900042F48072CA6001684A6942F001024A61D5
:103DA0000068C16841F02001C160002070472DE922
:103DB000F041984617460E460446069D27E0681CCB
:103DC00025D02DB1FDF7E6FEA0EB0800A8421ED9D4
:103DD00020680C3050E8001F21F4D07140E8001238
:103DE000002AF5D12068143050E8001F21F00101AD
:103DF00040E80012002AF5D1202084F83D0084F824
:103E00003E00002084F83C000320BDE8F0812068DB
:103E1000006836EA000004D00020B842CFD000206D
:103E2000F3E70120F9E700000148FEF721BE00009A
:103E3000540600200148FEF71BBE00009806002033
:103E40000148FEF715BE0000DC060020FEE700007A
:103E50000FB44FF4807110B503AB0748029A00F01D
:103E600033F882B24FF6FF7303490448FFF772F844
:103E700010BC5DF814FB0000FD590020DC0600209A
:103E80000FB4054B10B503A9044A029800F014F9C9
:103E900010BC5DF814FB00007D480008CC00002039
:103EA0000FB4084B10B504A902AA039800F004F956
:103EB000044602A9002000F0A1FC204610BC5DF8D9
:103EC00014FB0000FD4700087CB5044600201D4699
:103ED000164600290BD0491ECDE90041044B6A4625
:103EE0002946304600F0E8F8009A002111707CBDA8
:103EF000E74700080907090E002804DB00F1E0206D
:103F000080F80014704700F00F0000F1E02080F806
:103F1000141D704702E008C8121F08C1002AFAD118
:103F200070477047002001E001C1121F002AFBD139
:103F3000704700002DE9FF5F82B00021DDE9043009
:103F4000020DDDF840B0034318D044F61050A2F241
:103F5000FF3242431514119801281FD0A5EB0B0026
:103F6000401C5FEA000A4FF000064E4FDFF8389120
:103F7000B046504615D5CAF1000413E0119801244B
:103F80004AA3012801D16FEA0B010298119AC0E9F6
:103F90000031C0E9024206B0BDE8F09FCBF100005D
:103FA000DFE704460021404A491842EB0450CDE9BE
:103FB000001012E0E00707D032463B464046494633
:103FC000FCF7D5F98046894632463B4610461946ED
:103FD000FCF7CDF906460F466410002CEAD1DDE966
:103FE0000401DDE90023BAF1000F06DAFCF7BFF99E
:103FF00042464B46FCF7BBF905E0FCF7E7FB4246BF
:104000004B46FCF7E3FB04460E460022284BFCF728
:1040100065FC03D84FF0FF30014607E00022254B36
:1040200020463146FCF72BFBFCF73FFC102409E04F
:10403000002C0ADB0A220023FCF722F9039B303212
:104040001A55641E50EA0102F2D1641C039AC4F1AD
:1040500011031444119A012A03D0012208430DD1FF
:104060000AE0084304D000204FF0110B119072E7D2
:10407000A3EB0B056D1E0DE05B4504DD4FF0000268
:1040800005F1010504E003DA4FF00002A5F1010596
:10409000002AECD002981199C0E90231C0E900452C
:1040A00079E70000000014400000F03F30000000FD
:1040B0000000F0430000E03F2DE9FF4F95B09B4624
:1040C0008946064600250FE2252877D10024274699
:1040D000F84A0121059400E0044316F8013F203B13
:1040E00001FA03F01042F7D130782A2811D06FF08E
:1040F0002F033078A0F13002092A16D8059A44F02F
:10410000020402EB820203EB42021044761C05908B
:10411000EFE759F8042B0592002A03DA504244F4E1
:104120000054059044F00204761C30782E2816D1F5
:1041300016F8010F44F004042A280DD06FF02F0266
:104140003078A0F13003092B09D807EB870302EB85
:104150004303C718761CF3E759F8047B761C3078C4
:104160006C280FD006DC4C2817D068280DD06A28A0
:1041700014D104E0742810D07A280FD10DE044F453
:1041800000140AE044F4801401E044F4401472780E
:10419000824202D104F58014761C761C30786628A1
:1041A0000BD013DC582877D009DC002875D04528BF
:1041B000F6D04628F4D047281AD19DE118E06328AC
:1041C00035D0642879D0652812D195E1702873D054
:1041D00008DC6728F1D069286FD06E280DD06F28D1
:1041E00006D1B5E073282CD0752875D0782874D006
:1041F0005A46179990476D1C75E1C4F30250022886
:1042000009D003280DD0D9F8001004280DD00D6076
:1042100009F1040967E1D9F80010EA17C1E9005271
:10422000F6E7D9F800100D80F2E70D70F0E719F805
:10423000041B8DF8001000208DF80100EA460120D3
:1042400003E059F804AB4FF0FF3061074FF0000175
:1042500002D40DE008F101018846B9420FDA804529
:10426000F8DB1AF808100029F4D108E008F1010180
:1042700088468142FADB1AF808100029F6D1059821
:104280005B46A0EB080721463846179A00F094FADF
:10429000284400EB080507E04DE029E10DE01AF89D
:1042A000010B5A4617999047B8F10108F7D25B46BF
:1042B00021463846179A13E142E00A220092C4F3DD
:1042C00002524FF0000A022A08D059F804CB032A00
:1042D0004FEAEC710AD00DE029E02AE009F107016C
:1042E00021F00702F2E802C1914609E00FFA8CFCC6
:1042F0004FEAEC71042A03D14FFA8CFC4FEAEC71BF
:10430000002907DA0A460021DCF1000C61EB02010A
:104310002D2202E0220504D52B228DF80420012253
:1043200003E0E20701D02022F7E7904659E00A2196
:1043300002E010220DE010214FF0000A00910BE086
:1043400010224FF0000A44F004040827009203E012
:1043500008224FF0000A0092C4F30252022A05D04C
:1043600059F804CB0021032A08D009E009F107011C
:1043700021F00702F2E802C1914605E01FFA8CFC29
:10438000042A01D10CF0FF0C4FF00008220728D5B9
:10439000702806D0009B83F0100353EA0A0305D06F
:1043A0000EE040228DF80420012208E05CEA0102C0
:1043B00006D030228DF804208DF8050002229046A8
:1043C000009B83F0080353EA0A030AD15CEA010266
:1043D00001D1620705D530228DF804204FF0010885
:1043E0007F1E582804D034A003900EA802900DE040
:1043F00036A0F9E753466046009AFBF741FF844632
:104400000398825C0298401E029002705CEA0100F0
:10441000F0D1029806A9081A00F1200A600702D517
:1044200024F4803400E00127574502DDA7EB0A00A1
:1044300000E0002000EB0A01009005984144401A7A
:104440000590E00306D45B462146179A059800F0D4
:10445000B3F90544002706E001A85A46C05D179944
:1044600090476D1C7F1C4745F6DBE0030CD55B468F
:104470002146179A059800F09FF9054404E0302082
:104480005A46179990476D1C0099481E00900029C4
:10449000F5DC08E0029802995A460078491C02911E
:1044A000179990476D1CBAF10001AAF1010AF1DCDD
:1044B00065E10000092801003031323334353637E8
:1044C0003839616263646566000000003031323360
:1044D0003435363738394142434445460000000000
:1044E00000F058F90544761C307800287FF4ECADD4
:1044F00019B02846BDE8F08F620700D4062709F1FD
:10450000070222F0070CFCE80223E14603F0004812
:104510005FEA080C02D00FF2702C0DE05FEA045C39
:1045200002D50FF2682C07E05FEAC47C02D00FF2DC
:10453000602C01E0AFF2700C4FF0FF3823F0004325
:10454000CDF850C065280CD006DC452809D0462897
:104550001DD047283DD13DE0662818D067287ED180
:1045600038E00021112F01DB112000E0781CCDE99B
:10457000000106A90EA8FFF7DDFCDDE90F010E9A88
:1045800003910021009207F1010A04914DE04FF0E0
:1045900000400097CDE9011006A90EA8FFF7CAFC5C
:1045A000DDE90F0203920E9B11990022DDF80CA0A9
:1045B0000093049211B9791C00EB010AB7EB0A00D1
:1045C00004D4C0F1FF3007F1010A0490AAEB070000
:1045D000019044E0012F00DA01270021112F01DDB5
:1045E000112000E03846CDE9000106A90EA8FFF72A
:1045F000A1FCDDE90F010E9A0391002104910092C4
:10460000BA4621070CD40399514500DA8A46BAF11B
:10461000010F05DD009AAAF10101515C302908D093
:10462000B84202DA10F1040F06DA0121CDE90110D7
:1046300015E0AAF10101E9E7002805DC049901442D
:104640000491AAEB000102E0411C514500DD8A46BD
:104650000499401A401C01904FF00040029020073E
:1046600004D40198504501DBCDF8048000208DF87A
:104670004F0002980DF14F07B0F1004F25D02B20CD
:104680000E9002984FF0020800280CDA4042029087
:104690002D200E9007E00A210298FBF727FF30310A
:1046A000029007F8011DB8F10001A8F10108F2DC41
:1046B00002980028EFD1791E0E980870307800F02B
:1046C000200040F0450007F8020D12A8C01B00F1C1
:1046D00007081498007800B1012000EB0A01019846
:1046E00001EBE07105984144401A401E0590E0033B
:1046F00006D45B462146179A059800F05DF80544FC
:104700001498007818B15A46179990476D1CE00329
:1047100024D55B462146179A059800F04DF80544CC
:104720001CE00498002807DBDDE90301884203DD73
:104730000098405C179901E0179930205A4690473D
:10474000049805F10105401C04900198401E019059
:1047500004D12E205A46179990476D1CBAF10001DA
:10476000AAF1010ADDDC05E017F8010B5A4617999A
:1047700090476D1CB8F10001A8F10108F4DC5B461C
:104780002146179A0598ABE62D0000002B0000008B
:10479000200000002DE9F041044600251E46174682
:1047A000880404D405E039462020B0476D1C641EFF
:1047B000F9D52846BDE8F0812DE9F04104460025F1
:1047C0001E469046C80301D5302700E02027880404
:1047D00004D505E041463846B0476D1C641EF9D546
:1047E0002846BDE8F0814A68002A06D00A68531CB2
:1047F0000B6010704868401E486070470A68531C80
:104800000B601070704770472DE9F041040006D02E
:10481000184E306884420AD10020BDE8F081502053
:1048200080F31188BFF34F8FBFF36F8FFEE700F067
:10483000DBFE6569F76B366C00F0F6FEBD4201D019
:10484000B54201D10220E8E70B48854208D1A06AB1
:104850000028F7D194F85C000128F3D00320DCE7AE
:1048600005481438854202D00DB10120D5E7042057
:10487000D3E7000024000020580C002013B54FF0AF
:10488000FF33012269460248FEF764FB00981CBD15
:104890009806002000207047FDF78AF9FEF782FF96
:1048A000FEF7A4FCFEF766FCFEF78AFDFEF7A4FD0A
:1048B000FEF7BEFDFEF72CFCFEF706FDFEF728FD19
:1048C000FEF75AFDFCF722F900F012F8FEF768FC3B
:1048D00000F020F8FEE710B5EFF3058111B16FF09D
:1048E000050403E0002408B100F056FF204610BD87
:1048F000EFF3058010B16FF00500704704480168C0
:1049000011B14FF0FF307047012101600020704766
:104910007C00002010B5EFF3058010B16FF00500AA
:1049200010BD08480168012902D04FF0FF3010BDCA
:10493000054A002182F8141D0221016001F0ACF843
:10494000002010BD7C0000200BE000E02DE9F041CC
:104950000D46014621F0010001F001014FF0000475
:10496000EFF305820AB1A41F16E048B100296FF0E9
:1049700001066FF00207294608D001F0DFFC07E0CE
:104980006FF0030408E035B1344605E001F01AFC8D
:104990000128F8D100E03C462046BDE8F08170B522
:1049A00005464FF00004EFF3058050BB0DB1686879
:1049B00000E00020C10701D0012600E0002600072A
:1049C0001FD46DB1D5E9021021B1502819D31EB101
:1049D000042002E020B114E0012001F084F905E098
:1049E0000EB1042000E0012001F072F9040008D0AB
:1049F0000DB1296800E0002100F098FE0EB144F0EE
:104A00000104204670BD70B5014621F0010001F09F
:104A100001014FF00004EFF305820AB1A41F11E079
:104A200028B16FF0020529B101F011FB07E06FF02A
:104A3000030407E000231A46194601F0F9F901289A
:104A400000D02C46204670BD2DE9FF414FEA0103FE
:104A50004FF00005EFF30581039549BB40B3802774
:104A6000182100244AB3166806B1344696691EB16F
:104A70003146761E382E02D21679F60703D0002072
:104A800004B0BDE8F081566906B1B708D2F808C095
:104A9000BCF1000F0DD0D568602D18D312693AB162
:104AA00036B18DE806103A46214601F0CEFC03905F
:104AB0000DE0D6685EB912694AB903AACDE90012C1
:104AC000BAB2214601F094FC012800D00395039866
:104AD000D6E710B5EFF3058111B16FF0050403E0DF
:104AE00020B1002400F09AFF204610BD6FF00304AF
:104AF000FAE700002DE9F041134C0F460546E66841
:104B00002068001D00F0BEFC681C07D137B1216889
:104B1000BDE8F0410D48091D00F05ABD206835443C
:104B2000B5424560216805D2206CBDE8F041091D01
:104B300000F036BDE06B091D00F032FDA06A854231
:104B400000D2A562BDE8F08124000020580C0020AE
:104B50002DE9F041054600F047FD2D4CA068401CB2
:104B6000A06020682B4F10B1606930B32BE0256046
:104B7000A068012827D1002606EB860007EB8000FD
:104B800000F000FD761C382EF6D3234800F0FAFC26
:104B90002148143000F0F6FC1F48283000F0F2FCE9
:104BA0001D483C3000F0EEFC1B48503000F0EAFCA1
:104BB0001948E0631430206405E02068E96AC06A9F
:104BC000884200D82560606A401C60626864E86AB8
:104BD0002169884200D9206100EB800007EB80004A
:104BE000291D00F0F5FC00F01FFD606900280CD0C5
:104BF0002068E96AC06A884207D208494FF08050AD
:104C00000860BFF34F8FBFF36F8FBDE8F0810000E6
:104C100024000020A8070020080C002004ED00E07C
:104C200038B500F0E1FC104C2068C8B90F4800F01E
:104C3000A9FC0E48143000F0A5FC0C48E0601430CC
:104C400020610A4B0020F03B009003F1500210213C
:104C50000A2001F076F8206010B105A100F066FD91
:104C6000BDE8384000F0E0BC680000205C0D00208A
:104C7000546D72510000000030B4026C0B46002AE3
:104C80000BD0C1681144C1608468A14201D301689E
:104C9000C16030BC1846FBF724BB30BC70472DE91F
:104CA000F041856B174604460026026C82B1C7B1FD
:104CB000E068FBF716FBE168206C091AE1602268E6
:104CC000914202D2A168081AE060022F16D017E0C4
:104CD0002068A8B9A06801F061FC06460020A06029
:104CE0000EE06068FBF7FDFA216C606808446060C4
:104CF000A168884204D32068606001E005B16D1EA0
:104D00006D1CA5633046BDE8F08110B5044690F8EF
:104D10005D0058B101280CD002280FD0502080F33C
:104D20001188BFF34F8FBFF36F8FFEE7206B00F04A
:104D30008FFC2046BDE8104000F08ABC10BD00008A
:104D400010484FF47051420706D0C01D0D4920F0A5
:104D50000700411AC1F570510B4A00230144C2E912
:104D600000030839183A21F0070111604B600B600D
:104D70000B1AC0E9001393604FF00040536050617C
:104D8000704700004414002098000020144E154C79
:104D9000A6F29C474FF08058DFF84C9012E000BF1D
:104DA00000F022FCF068C568281D00F06BFBA068CD
:104DB000401EA0606068401E606000F035FC284620
:104DC000FFF7A3FF60680028EAD138680128F9D905
:104DD000C9F80080BFF34F8FBFF36F8FF2E7000079
:104DE000440C00202400002004ED00E0002807D03F
:104DF0000021816001600B460A46C16001F018B8CD
:104E00007047000070B51D46049C51B1C4F80020E5
:104E1000C4E90F010121204600F0C6FF84F84C5080
:104E200070BD2460F4E700002DE9F05F8846DDE9FD
:104E30000B941546834691009A460A9EA522206B44
:104E4000FBF761FA6FF00301206B01EB8501084469
:104E500020F00707780707D0502080F31188BFF3B0
:104E60004F8FBFF36F8FFEE70025B8F1000F0FD013
:104E70005FF00000221818F8001082F8341018F8BB
:104E8000001011B1401C1028F4D384F8435001E005
:104E900084F83450382E00D33726E662C4E913650F
:104EA000201D00F07AFB04F1180000F076FB24616D
:104EB000C6F138006462A0616565A56584F85C5040
:104EC00052465946384600F0C7FA2060B9F1000F43
:104ED00001D0C9F80040BDE8F09F000030B511498D
:104EE00000E011460A688242FBD34B685C1884429A
:104EF00003D1406818444860084643681C1894422F
:104F000009D1084C183C2468A24209D052681A44BE
:104F100042600A6812680260814200D0086030BDB9
:104F20000460F9E79800002070B5002441600B4D43
:104F30000061914206D8D11A8269914206D2011DC0
:104F4000286907E09A4203D2994201D3012403E081
:104F5000011DE86800F024FB204670BD68000020B9
:104F600010B5044600F040FBA06B28B15FF00004D0
:104F700000F05AFB204610BD0124F9E72DE9F04767
:104F80008146086892460C46002600B3606804F12A
:104F9000080540686060A84201D1416861606068AE
:104FA000D0F80C80606840686060A84201D1416818
:104FB0006160606806EBC60109EB8101C768534672
:104FC0000122384600F00EFC761C4745EAD13046F7
:104FD000BDE8F08730B589B03C4D6EE004980028FC
:104FE00006DADDE90601059A90470498002864DB9B
:104FF000069C606910B1201D00F044FA03A800F07F
:10500000D7F8024604980A2857D2DFE800F00505D1
:10501000052D334A05052D3394F8280040F0010092
:1050200084F828000599A069059B01442046FFF7F4
:105030007BFF68B3216A2046884794F82800400720
:105040003BD5002000900598A1690023421819461D
:10505000204601F0E9FBD8B9502080F31188BFF356
:105060004F8FBFF36F8FFEE714F8280F20F0010079
:10507000207022E094F8280040F0010084F8280015
:105080000598A06128B1811813462046FFF74CFF10
:1050900013E0502080F31188BFF34F8FBFF36F8F61
:1050A000FEE794F82800810703D4204600F0D0FAE8
:1050B00003E020F0010084F82800002204A92868F9
:1050C00000F0E4FF002889D109B030BD680000205D
:1050D0002DE9FC410F46054600F024FD01A800F033
:1050E00067F80446019818B101F00CFBBDE8FC819B
:1050F000254EAFB130690068D0B30027291B3A466E
:10510000306800F027FB01F0FDFA0028EED11F49BE
:105110004FF080500860BFF34F8FBFF36F8FE5E70C
:10512000A542EBD801F0EEFAF0682746C068C468E3
:10513000201D00F0A7F994F82800410719D5A069AF
:105140002B4641193A462046FFF7EEFEA8B1002053
:105150000346014600902A46204601F065FB60B9EF
:10516000502080F31188BFF34F8FBFF36F8FFEE79E
:1051700007E020F0010084F82800216A20468847D3
:10518000B4E70127BAE700006800002004ED00E062
:105190000648C16B096829B1C16BC968C96849680B
:1051A000816270474FF0FF31FAE7000024000020D1
:1051B00070B5054601F088F9064E0446B068844291
:1051C00003D200F009F8012000E00020286020460A
:1051D000B46070BD68000020F8B5194D20E0C068CB
:1051E000C4680668201D00F04DF9216A20468847F2
:1051F00094F82800400713D5A0693044B04206D97E
:1052000024616060211DE86800F0CAF908E0002010
:105210000346014600903246204601F005FB38B1B6
:10522000E86801680029DAD12969C5E90310F8BDE9
:10523000502080F31188BFF34F8FBFF36F8FFEE7CD
:1052400068000020002101E0401C491C0278A52ACA
:10525000FAD0C1F38F00704708484068401C4FF0F7
:10526000500080F3118804D0BFF34F8FBFF36F8FCE
:10527000FEE7BFF34F8FBFF36F8FFEE7A000002064
:10528000002150B10A4B42699A420FD1806AA3F1C2
:10529000280290420AD040B108E0502080F31188E3
:1052A000BFF34F8FBFF36F8FFEE7012108467047B2
:1052B000580C0020074CE068016841B1C06800212B
:1052C000D0F80000FFF704FFFFF784FEF3E70121A9
:1052D0000020F7E7680000202DE9F041044600F0C7
:1052E00083F994F9455004F1240609E0606A48B155
:1052F000304601F0CFF908B100F00EFB6D1E6DB223
:10530000002DF3DC4FF0FF3684F8456000F08CF997
:1053100000F06AF994F9445004F1100709E020699B
:1053200048B1384601F0B6F908B100F0F5FA6D1E43
:105330006DB2002DF3DC84F84460BDE8F04100F06C
:1053400073B910B50446FBF709F82046FAF7FFFFDA
:10535000202101E02154401C0F28FBD300212154BF
:10536000204410BD2DE9F0410546002700F0DAFB8E
:10537000324E306808B9FFF7E3FC706905424ED140
:10538000C5B3083568070ED005F00700C0F1080066
:105390000544680707D0502080F31188BFF34F8F72
:1053A000BFF36F8FFEE72DB37068854237D823486F
:1053B000183001460C6801E020460C466168A9429D
:1053C00002D221680029F7D131688C4227D00768C2
:1053D0002168016060680837411B10290FD96019E6
:1053E000420708D0502080F31188BFF34F8FBFF3DE
:1053F0006F8FFEE713E041606560FFF76FFD616846
:105400007068401A7060B268904200D2B0607069F3
:1054100001430020C4E90001F068401CF06001F085
:1054200071F9780707D0502080F31188BFF34F8FB0
:10543000BFF36F8FFEE73846BDE8F08180000020A3
:105440000449086818B10868026D521C02650868B2
:10545000704700002400002010B5031F4FF0807437
:105460001C601B1F21F001011960191F044B0B6008
:1054700014390A60091F6FF0020244380A6010BD37
:1054800059520008D0E9013201699A60D0E901233C
:105490005A604A68824201D182684A6000220261F1
:1054A0000868401E08600868704700002DE9F04752
:1054B00017460A4605460024382600F033FBDFF87D
:1054C0008C80D8F8080082423BD3DFF88490761EA7
:1054D00006EB860104EBC40009EB810105EB8000BB
:1054E0000122FFF74BFD0444002EF0D104EBC40071
:1054F00005EB800002224646D8F83C10FFF73EFD3F
:10550000044404EBC40005EB80000222316CFFF779
:1055100035FD044404EBC40005EB800004220D4972
:10552000FFF72CFD04440B4904EBC40005EB80009D
:1055300003221431FFF722FD044417B1FFF7AAF943
:10554000386001F0DFF82046BDE8F0872400002035
:10555000A8070020440C0020034B036003F1600007
:105560000860802010607047840D0020044B0360A9
:1055700003F1600008604FF4807010607047000015
:10558000E40F002000F108014FF0FF32C0E90112E2
:10559000C160016100210160704700210161704715
:1055A00030B50B685A1C02D000F1080202E0026913
:1055B00004E02246546825689D42FAD953684B603E
:1055C00099608A60516008610168491C016030BDC2
:1055D00042684A6093688B60936859609160086183
:1055E0000168491C01607047502080F31188BFF3A7
:1055F0004F8FBFF36F8F0A494868401C48600128ED
:105600000CD10848006810F0FF0F07D0502080F33D
:105610001188BFF34F8FBFF36F8FFEE77047000015
:10562000A000002004ED00E00849486828B1401EB1
:10563000486001D180F311887047502080F31188B1
:10564000BFF34F8FBFF36F8FFEE70000A000002075
:1056500070B500282AD0164DA0F108046068696969
:10566000084207D1502080F31188BFF34F8FBFF35A
:105670006F8FFEE722683AB1502080F31188BFF3A4
:105680004F8FBFF36F8FFEE78843606000F04AFAE8
:1056900060686968084468602046FFF71FFC286955
:1056A000401C2861BDE8704001F02CB870BD0000BE
:1056B000800000204FF0E020002101618161054958
:1056C0004FF47A720968B1FBF2F1491E416107217A
:1056D000016170472000002010B5FAF7BBFD1149A9
:1056E00010280ED300F1E02090F8F0030A789042E1
:1056F00007D2502080F31188BFF34F8FBFF36F8F15
:10570000FEE709480068896800F4E060884207D92C
:10571000502080F31188BFF34F8FBFF36F8FFEE7E8
:1057200010BD0000A00000200CED00E010B5084BFB
:10573000002200BF53F832401CB1521C082AF9D392
:1057400010BD43F8321003EBC201486010BD0000E9
:105750006807002070B515460E460446FFF744FF63
:1057600094F944100020491C01D184F8440094F9B4
:105770004510491C01D184F84500FFF755FFA06B87
:1057800028B92A46314604F1240000F0E3F8204607
:10579000BDE87040FFF7A0BD10B5020014D00F485F
:1057A000006B38B1502080F31188BFF34F8FBFF3E7
:1057B0006F8FFEE700F0B6F900211046FFF79AF967
:1057C00000F0A0FF002807D105494FF08050086085
:1057D000BFF34F8FBFF36F8F10BD00002400002078
:1057E00004ED00E02DE9F0410C461B491646B8B126
:1057F0004FEA000505F13400C4E90050E86A206171
:10580000286BE061686CA060E86C6061686D0027DF
:10581000A061052B12D00868854203D1277311E0DF
:105820000D68E7E72373032B0CD100F07BF9A86A1E
:1058300008B10220207300F065FF03E02846FEF760
:10584000E3FF20732EB1286BFFF7FCFC2084BDE83A
:10585000F0812784FBE700002400002002490A6A47
:105860000260C96841607047240000202DE9FC47B0
:1058700000218146017023488468806800EBC000E5
:105880008000FFF76FFD060039D000222146FFF7A8
:105890000DFE0746002423E004EBC40006EB800560
:1058A000287B052829D2DFE800F003052224260002
:1058B000582000E05220804648466968FFF741FDC5
:1058C0008146A968288CCDE9000142460EA14846D0
:1058D0002B69FEF7E5FA4846FAF739FD8144641C66
:1058E000BC42D9D33046BDE8FC47FFF7B1BE4220E9
:1058F000E1E75320DFE74420DDE70020DBE7BDE8F8
:10590000FC8700002400002009256309257509256E
:10591000750925750D0A000001490120C86170470D
:105920002400002010B50C4650B10949096818310F
:10593000FFF736FE2046BDE810400121FFF7DAB838
:10594000502080F31188BFF34F8FBFF36F8FFEE7B6
:105950002400002070B514460D4668B10A49096854
:105960001831FFF735FE0CB14FF0FF3521462846C0
:10597000BDE87040FFF7BEB8502080F31188BFF338
:105980004F8FBFF36F8FFEE72400002070B5040037
:105990003ED0226DA2B1E06C884200D30146E06A9D
:1059A000884235D0012A33D11A4D2A6894420FD14A
:1059B000502080F31188BFF34F8FBFF36F8FFEE746
:1059C000502080F31188BFF34F8FBFF36F8FFEE736
:1059D000E162A269002A02DBC1F13801A1610E4E29
:1059E00000EB8000616906EB8000814210D1201D30
:1059F000FFF748FDE06A2969884200D9286100EB79
:105A0000800006EB8000211DBDE87040FFF7E0BD7F
:105A100070BD000024000020A807002070B504001D
:105A20002AD01A4D286884422ED0FFF7DDFD20468B
:105A3000FFF726FCE0B1201DFFF724FDE06A29698D
:105A4000884200D92861124900EB800001EB8000F8
:105A5000211DFFF7BDFDE06A2968C96A884207D3A6
:105A60000C494FF080500860BFF34F8FBFF36F8F2A
:105A7000BDE87040FFF7D8BD502080F31188BFF318
:105A80004F8FBFF36F8FFEE770BD00002400002032
:105A9000A807002004ED00E030B587B0002403948F
:105AA00005AA04A903A80494FFF756FDDDE9030144
:105AB0000094CDE90110002316A11848059A00F0C2
:105AC000C4FC174D0028E86221D000F07DFE0128BB
:105AD00009D0401C1BD1502080F31188BFF34F8F99
