:020000040800F2
:10000000F86B00205D0200084F420008B13B000879
:100010004D420008B9110008094E00080000000018
:100020000000000000000000000000009D0100082A
:100030008913000800000000F90100088547000846
:1000400077020008770200087702000877020008AC
:10005000770200087702000877020008770200089C
:10006000770200087702000877020008770200088C
:10007000770200087702000877020008770200087C
:10008000770200087702000877020008770200086C
:10009000770200087702000877020008770200085C
:1000A00077020008AD4900087702000877020008CF
:1000B000770200087702000877020008770200083C
:1000C000770200087702000877020008770200082C
:1000D00077020008E54D0008F14D0008FD4D0008CD
:1000E000770200087702000877020008770200080C
:1000F00077020008770200087702000877020008FC
:1001000077020008770200087702000877020008EB
:10011000F94A00087702000877020008B949000888
:10012000251200087702000877020008770200080D
:1001300077020008770200087702000877020008BB
:1001400077020008770200087702000877020008AB
:10015000770200087702000877020008770200089B
:10016000770200087702000877020008770200088B
:1001700077020008770200087702000800000000FC
:100180007702000877020008DFF80CD000F07CFE50
:1001900000480047F95D0008F86B00202C4B1968F7
:1001A0000868B0E8F04F80F30988BFF36F8F4FF015
:1001B000000080F3118870470000000008480068C4
:1001C000006880F308884FF0000080F3148862B65E
:1001D00061B6BFF34F8FBFF36F8F00DF00BF00BF6B
:1001E00008ED00E0DFF80C00016841F470010160E7
:1001F000704700BF88ED00E0EFF30980BFF36F8F19
:10020000134B1A681EF0100F08BF20ED108A20E96A
:10021000F04F106009B44FF0500080F31188BFF325
:100220004F8FBFF36F8F07F059F94FF0000080F345
:10023000118809BC19680868B0E8F04F1EF0100F6B
:1002400008BFB0EC108A80F30988BFF36F8F704746
:1002500038000020EFF30580704700000648804713
:1002600006480047FEE7FEE7FEE7FEE7FEE7FEE79B
:10027000FEE7FEE7FEE7FEE73548000889010008D3
:100280002DE9F05F0546002092469B4688460646CB
:10029000814640241BE0284641464746224600F05E
:1002A0003AFC53465A46C01A914110D3114618469B
:1002B000224600F021FC2D1A67EB01084F4622462A
:1002C0000120002100F018FC17EB00094E41201E10
:1002D000A4F10104DFDC484631462A464346BDE826
:1002E000F09FA0F14101192900D82030704740EA61
:1002F00001039B0703D009E008C9121F08C0042AA4
:10030000FAD203E011F8013B00F8013B521EF9D28A
:100310007047D2B201E000F8012B491EFBD27047B2
:100320000022F6E710B513460A4604461946FFF7C1
:10033000F0FF204610BD30B505462A460B4612F8A0
:10034000010B13F8014B08B1A042F8D01CB10028F2
:1003500002D06D1CF1E7284630BD10B5044604E01C
:100360000B7800F8013B03B1491C521EF8D220461D
:1003700010BDCAB2401E10F8011F8A4202D00029E7
:10038000F9D100207047421C10F8011B0029FBD155
:10039000801A704710B5002200E0521C835C8C5C10
:1003A000A34201D1002BF8D1D8B2E1B2401A10BD5E
:1003B000034611F8012B00F8012B002AF9D1184649
:1003C000704730B505460020034600E05B1C9342B1
:1003D00005D2EC5CC85C201A01D1002CF6D130BDEE
:1003E0000246C9B200E0401C0378002BFBD102E0BA
:1003F00003788B4203D0401E9042F9D20020704710
:100400002DE9FF4F087883B09946FF2805D0491C95
:100410002D2804D00024002008E000200BE0012457
:10042000F9E700EB800003EB4000491C0B78FF2B41
:10043000F7D104B1404200230293147819461D46B7
:100440002D2C01D02B2C04D1521C2D2C13D0002488
:100450000294AA461478FF2C0FD00A25A3FB057836
:1004600001FB05814FF0000C03FB0C11521CE3193A
:100470004AEB0101EEE70124EAE7814453EA010077
:1004800002D019F5C87F06DA03980021C0E90011EF
:1004900007B0BDE8F08F0025AE4E2F46DFF8B882DA
:1004A000184600F0CCFCCDE90001B9F1000002DAF9
:1004B000C9F1000400E004460023A74A1AEB030B2D
:1004C00042EB045A12E0E00707D02A46334638468A
:1004D000414600F0ECF9074688462A463346104666
:1004E000194600F0E4F905460E466410002CEAD1E6
:1004F000DDE90001B9F1000F5A46534606DA00F073
:100500002FFC3A46434600F02BFC05E000F0CFF903
:100510003A46434600F0CBF9029A0AB181F0004115
:10052000039AC2E90001B3E72DE9FF4F1F468DB0E2
:10053000D7E901464FF0FF382E2045464FF000091D
:100540000B90B9696D1C0E988847396A82468847B6
:100550000028F6D1BAF1FF3F0AD024F4D064002E6F
:1005600011DDBAF12B0F08D0BAF12D0F0BD102E03B
:10057000404611B08DE744F48064B9696D1C0E9853
:1005800088478246761E6946600501D52D2000E029
:100590002B208DF8000001F1010B0DF1200809E07E
:1005A000B9696D1C0E98884782460F9844F4007410
:1005B000761E0560002E02DDBAF1300FF0D00B99E7
:1005C0008A453ED144F0800406E00F99681CA9F1E9
:1005D000010944F400740860B9696D1C761E0E9818
:1005E000884782463028F0D02BE00B998A4505D108
:1005F000200603D444F08004761E18E0504604F030
:10060000F1FE08B30DF11301761E44F400748B451E
:1006100008D2AAF130000BF8010B200607D5A9F18A
:10062000010003E0200602D409F101008146A00583
:1006300002D50F99681C0860B9696D1C0E9888472F
:100640008246002ED1DC53E0002E51DDBAF1650F59
:1006500002D0BAF1450F4BD1A00549D5B9696D1C3F
:1006600024F44074761E0E9888478246002E0CDDD6
:100670002B2804D0BAF12D0F07D144F48074B96946
:100680006D1C0E9888478246761EE00501D52D2107
:1006900000E02B2108F8011BCDF82C8021E00DF1A2
:1006A0002901761E44F4007488450CD2AAF130006A
:1006B00010F0FF0088F8000002D10B99884509D995
:1006C00008F1010806E0E00501D5244801E042F206
:1006D0000F708146B9696D1C0E98884782460F9845
:1006E0000560002E04DD504604F07CFE0028D6D1C3
:1006F000F9690E988847FF208BF8000088F8000001
:100700000020069007904B466A4608A906A8FFF706
:1007100077FEA00502D46FF001002AE714F0240F41
:100720000AD0E00714D1DDE906123868031D3B60EA
:100730000068C0E900120BE0DDE9060100F0AAF94B
:100740000146E00704D13868021D3A600068016084
:1007500028460EE7000014400000F03FF1D8FFFFEC
:100760002DE9FE4F804681EA0300C00F0C46009041
:1007700021F0004123F00045B8EB0200A94105D269
:100780004046214690461C460B46024623F0004058
:10079000104347D0270DC7F30A00C3F30A51029054
:1007A000401A019040286BDAC3F3130040F4801B19
:1007B0000098924620B10023D2EB030A63EB0B0BA7
:1007C00001985946C0F14002504600F095F906469E
:1007D0000D4650465946019A00F0ADF910EB08005D
:1007E0006141002487EA115284EAE7731A4340D03A
:1007F000009A62B3019A012A4FEA075215DC001BE6
:1008000061EB02014FF0004202EA0752CDE90042DB
:10081000001C41F5801132462B4600F053FA03B01C
:10082000BDE8F08F40462146F9E7001B61EB02016D
:10083000001C41F5801300185B412018A2F5001739
:1008400047EB030140EAD570B6196D4111E06D0820
:100850004FEA360645EAC0754FEA0752001B61EBC6
:100860000201001C41F5801149084FEA30000019CF
:10087000514132462B4603B0BDE8F04F00F013BAA9
:100880000098012240000023D0EB020263EBE073EA
:10089000009821464FEAE074B8EB000061EB0401D8
:1008A000E9E783F000435BE781F0004158E72DE979
:1008B000FE4F81EA030404F0004421F0004100945B
:1008C0004FF0000B23F0004350EA01045ED052EADF
:1008D00003045BD0C3F30A54C1F30A552C44A4F2B9
:1008E000F3340194A0FB0254C1F3130141F48011CD
:1008F000C3F3130343F4801301FB024400FB034ED4
:10090000840A970A44EA815447EA8357A4FB07689C
:1009100002958D0A05FB07854FEA932C04FB0C54C6
:100920002705029D4FEA065847EA1637B5EB08053A
:100930006EEB070C870E920E47EA811742EA83128C
:10094000A7FB0201B6EB0B0164EB00042B0D43EA9D
:100950000C335E1844EB1C50DA465146E7FB0201AB
:10096000C5F313044FEA0B3343EA14534FEA04323E
:10097000019C43EA0603A4F10C040294009CCDE917
:1009800000B400F09FF903B0BDE8F08F00200146ED
:10099000F9E70EB5C10F80EAE0700844CA070021EC
:1009A00040F233438DE80E000A460B4600F08AF908
:1009B00003B000BD0EB540F2334102910021CDE9F4
:1009C00000110A460B4600F07DF903B000BD70B57A
:1009D000C1F30A5201F000450024C1F3130140F2B3
:1009E000FF3341F480119A4201DA002070BD40F2D9
:1009F00033439A42A2F2334203DC524200F08BF8B6
:100A000000E090402C43F1D0404270BD00F0004225
:100A100030F000400AD0C10D01F56071C0F316003E
:100A200042EA0151C20840071143704700200146C5
:100A30007047000030B5041E71F1000404DB4FF074
:100A40000044404264EB0101141E73F1000405DB15
:100A50001C464FF00043524263EB04038B4208BF35
:100A6000824230BD30B5041E71F1000404DB4FF04A
:100A70000044404264EB0101141E73F1000405DBE5
:100A80001C464FF00043524263EB0403994208BFF7
:100A9000904230BD01F0004330B421F0004150EAF3
:100AA000010206D00A0DA2F56072C1F31301002AFB
:100AB00002DC30BC00207047440F44EAC104C1008E
:100AC000E01830BC00EBC25000F0B6B830B50B46B1
:100AD000014600202022012409E021FA02F59D426E
:100AE00005D303FA02F5491B04FA02F52844151E42
:100AF000A2F10102F1DC30BD202A04DB203A00FA29
:100B000002F1002070479140C2F1200320FA03F364
:100B1000194390407047202A04DB203A21FA02F062
:100B20000021704721FA02F3D040C2F12002914027
:100B3000084319467047202A06DBCB17203A41FAB2
:100B400002F043EAE07306E041FA02F3D040C2F15A
:100B500020029140084319467047426842B101683B
:100B600011F8013B23B1521EC0E90012184670472C
:100B70000121C160881E704742685AB1C36801688C
:100B800043B983688B4205D0491E521CC0E900124C
:100B9000002070474FF0FF30704700000FB4002373
:100BA00000B589B00CA900910B996FF00042CB60A1
:100BB0001E4B06931E4B07930423CDE901321D4AB9
:100BC000089202466B460020FFF7AEFC09B05DF8C4
:100BD00014FB70B586B006464FF0FF300091CDE9AA
:100BE0000101002015460C4604903246694604A8CF
:100BF000FFF7D4FF02460498211825B108B1084632
:100C000000E020462860049800280DD0002A02DD6C
:100C10000098884208D0081B0094CDE901043246B0
:100C2000694604A8FFF7BAFF06B070BD5B0B000869
:100C3000790B0008AD0E00080029A8BF7047401CC2
:100C4000490008BF20F00100704710B4B0FA80FCE2
:100C500000FA0CF050EA010404BF10BC704749B11F
:100C6000CCF1200421FA04F411FA0CF118BF01218F
:100C700021430843A3EB0C01CB1D4FEA00614FEA6F
:100C8000102042BF002010BC704700EBC35010443E
:100C90000029A4BF10BC7047401C490008BF20F0C9
:100CA000010010BC704710B5141E73F1000408DA7F
:100CB000401C41F1000192185B411A4301D120F020
:100CC000010010BD2DE9F04D92469B4611B1B1FADD
:100CD00081F202E0B0FA80F220329046FFF70CFF7A
:100CE00004460F4640EA0A0041EA0B0153465A46C1
:100CF000084313D0114653EA010019D0C8F140024D
:100D00005046FFF708FF05460E46504659464246F4
:100D1000FFF7F2FE084305D0012004E020463946E3
:100D2000BDE8F08D0020054346EAE0762C433743CA
:100D30000A986305E40AA0EB08000022FD0A44EAD1
:100D400047540A3002D500200146E9E70105101991
:100D50006941DDE9084500196941BDE8F04DA2E7A8
:100D60002DE9F04D81EA030404F0004B21F0004529
:100D700014464FF0000A23F0004150EA050220D04B
:100D800054EA01021DD0C5F30A570246C5F3130306
:100D9000C1F31300C1F30A5640F4801543F48013E5
:100DA000A7EB0608101BD64608F2FD3873EB0500CA
:100DB00002D308F1010801E092185B41B8F1000F7D
:100DC00003DA00200146BDE8F08D00204FF48011C9
:100DD000064684460EE0171B73EB050705D3121B6E
:100DE00063EB050306434CEA010C49084FEA300067
:100DF00092185B4150EA0107EDD152EA030012D08C
:100E000082EA040083EA0501084305D0101BAB41C8
:100E100006D20122002306E000224FF0004302E048
:100E20006FF0010253101AEB06004CEB085110EB67
:100E30000A0041EB0B01BDE8F04DFFF734BF0EB5E2
:100E400040F2334202920022CDE900221346FFF71E
:100E500039FF03B000BDC1F30A52C1F3130140F2E0
:100E6000FF3341F480119A4202DA002001467047B4
:100E700040F233439A42A2F2334202DC5242FFF77D
:100E80004ABEFFF739BE0000064C074D06E0E06899
:100E900040F0010394E8070098471034AC42F6D3C1
:100EA000FFF776F9B8850008D8850008C0B24FF47E
:100EB000F05100F001B800007F2801D9002208E0BD
:100EC000064A02EB5002C007127800D1120902F064
:100ED0000F02012090400840704700009C840008E9
:100EE00070B58C1810F8015B15F0070301D110F8EC
:100EF000013B2A1106D110F8012B03E010F8016B19
:100F000001F8016B5B1EF9D12B0705D40023521E9B
:100F10000DD401F8013BFAE710F8013BCB1A921C03
:100F200003E013F8015B01F8015B521EF9D5A14201
:100F3000D8D3002070BD10B50146806B026C12F052
:100F4000500F05D0026CD20626D500F041FE10BD30
:100F5000016C41F40071016401688A6812F0405F1D
:100F600017D1027EAAB9CA6A12F4700F02D08A6839
:100F700052050ED44A6822F020024A60016C21F426
:100F800080710164016CC90403D4016C41F001015A
:100F9000016400F01BFE10BD806BC26CBDE8104008
:100FA0000846104710B5806B40210164416C41F048
:100FB0000401416400F00CFE10BD10B5806B00F020
:100FC00006FE10BD464910B54A6822F440324A6018
:100FD0004A6843681A434A6001684A6822F480728A
:100FE0004A6001684A68036942EA03224A6001686C
:100FF0004A6822F040724A6001684A6883681A436E
:101000004A6001688A6822F400628A6001688A681E
:10101000C3681A438A60816A6FF07062D1420168C6
:101020008A6822F070628A6001688A680CD0836ADC
:101030001A438A6001688A6822F040528A60016817
:101040008A68C36A1A4301E022F040528A6001684C
:101050008A6822F002028A6001688A68037E42EA96
:1010600043028A6090F82010002901684A680FD076
:1010700042F400624A6001684A6822F460424A60B1
:1010800001684A68174C436A04EB43331A4301E092
:1010900022F400624A600168CA6A22F47002CA62DD
:1010A0000168CA6A838B104C04EB03531A43CA626B
:1010B00001688A6822F400728A6001688A6890F880
:1010C000303042EA43228A6001688A6822F48062F2
:1010D0008A6001688A68406942EA8020886010BDA1
:1010E0000023014000E0FFFF0000F0FF70B5012287
:1010F00008211A4801F0A1F901221949194802F002
:1011000095FB01221849194802F090FB0122184969
:10111000184802F08BFB18A003F078FE4FF4FA7524
:10112000284601F07BF803F0FDFB00F0C7F9154CF1
:1011300015A0A1880A31A18003F068FEA1881AA039
:1011400003F064FE284601F069F800F029FA03F084
:10115000DDF8BDE8704002F02DBD00000010024037
:10116000F7000020F4060020F800002038070020D7
:10117000F90000207C070020706167652030FFFFC8
:10118000FF000000D400002074302E7478743D22DB
:1011900044533130423230B3F5CABCBBAFB3C9B9E6
:1011A000A622FFFFFF0000006A302E76616C3D250D
:1011B00064FFFFFF00000000FEE700000648016832
:1011C00041F080710160054800214160016841F0F3
:1011D0000101016070470000FCED00E0001000E03C
:1011E00011B50022FFF7EAFF0B480C490C4C0068D0
:1011F000B0FBF1F300986168434360688842FCD01B
:1012000002D9A0EB010102E06FEA010101440A44A6
:1012100001469A42F1D318BD3400002040420F002D
:10122000001000E0054910B501200870044800F0E6
:1012300083FEBDE81040034800F0ECBDE80000204C
:10124000680500202005002001681823CAB2103A62
:10125000B2FBF3F2054B6FF30901032A9B5CC365F4
:1012600000D9091D81650846704700007C8400088C
:1012700010B5014600208B698A6A4FF0C07453B1E3
:10128000B3F5005F15D072B1012A0CD0022A0AD042
:10129000032A09D104E01AB1012A06D0022A03D197
:1012A000C96AC90100D5012010BDC96AA142FAD09E
:1012B00010BD002AF7D0012AF2D0022AF3D0032A67
:1012C000F3D010BD30B50468256825F4802525606D
:1012D000046863608368402B036803D099600068EA
:1012E000C26030BD9A600068C16030BD00B587B093
:1012F00014216846FFF714F80B480021026842F0F9
:1013000010020260006800F0100005900420CDE992
:10131000000101200290032003906946034800F079
:101320008FFF07B000BD00003038024000100240BF
:1013300000B587B014216846FEF7F2FF0A4801683D
:1013400041F0100101600068694600F0100005904E
:101350000420009001200190029003200390034894
:1013600000F06EFF07B000BD3038024000100240B0
:10137000044B08B1012200E000220421184601F0CC
:101380005CB80000001002407047000070B50024F7
:10139000FFF7ACFF124D04E0641CE4B20120FFF73C
:1013A0001FFF0421284601F043F810B1642CF3D349
:1013B0000FE0642C0DD2002404E0641CE4B2012090
:1013C000FFF70EFF0421284601F032F818B1F02C87
:1013D00004D3012070BDF02CEFD3FAE7002070BDDC
:1013E0000010024070B500255FF0010400F09EF887
:1013F000012806D0A543600010F0FF04F6D128466E
:1014000070BD2543F7E7000070B505465FF00104A5
:10141000FFF78EFF25424FF0000009D1FFF7A8FF2C
:101420004620FFF7DDFE0120FFF7A2FF022008E0C3
:10143000FFF79EFF0920FFF7D3FE0120FFF798FF7B
:101440003720FFF7CDFE600010F0FF04E0D170BD43
:1014500010B52DED028B00F085F8FFF797FFCC203B
:10146000FFF7D2FF4420FFF7CFFF00F07BF8FFF734
:101470008DFFCC20FFF7C8FFBE20FFF7C5FFFFF7A9
:10148000B1FF0446FFF7AEFF000201B29FED098BEA
:1014900051EA040001D5C043401CFFF77AFA53EC2F
:1014A000182BFFF704FAFFF7F5FABDEC028B00EEFC
:1014B000100A10BD000000000000B03F70B500F041
:1014C00051F8FFF763FF04464FF4FA75284600F021
:1014D000A5FE54B107A003F0FDFD642000F09EFEC0
:1014E0002846BDE8704000F099BE09A003F0F2FD67
:1014F000F6E700004453313842323020E5889DE55C
:10150000A78BE58C96E5A4B1E8B4A55C720A00004F
:1015100044533130423230E5889DE5A78BE58C9607
:10152000E68890E58A9F5C720A00000010B5FFF71C
:10153000FFFE0020FFF71CFF0F20FFF751FEFFF713
:10154000D5FE0421064800F073FF012805D00024D1
:101550003220FFF745FE204610BD0124F8E70000C9
:101560000010024010B5FFF7E3FE0020FFF700FF78
:1015700040F2EE20FFF734FE0120FFF7F9FEBDE850
:1015800010400F20FFF72CBE04480021A0F80011E6
:10159000A0F80211FF21FEF7C3BE0000E4500020B6
:1015A00070B5FFF7F1FF4FF4FA7402E0204600F047
:1015B00035FE34A134A000F055F90028F6D134A04E
:1015C00003F088FD02E0204600F028FE2DA134A0A3
:1015D00000F048F90028F6D135A003F07BFD394D25
:1015E000A888401D81B2A98037A003F00FFC2046D7
:1015F00000F014FE23A13FA000F034F90028F6D13A
:1016000040A003F067FDA888401D81B2A98042A0D8
:1016100003F0FCFB204600F001FE4AA14BA000F0C5
:1016200021F90028F6D151A003F054FDA888401DEF
:1016300081B2A98052A003F0E9FB204600F0EEFD44
:101640005AA15CA000F00EF90028F6D164A003F0C6
:1016500041FDA888401D81B2A98067A003F0D6FB98
:10166000204600F0DBFD6FA003F034FDA8880A30AF
:1016700081B2A98070A003F0C9FB2046BDE870408C
:1016800000F0CCBD4F4B000041540D0A000000009B
:101690004154CFECD3A6B3C9B9A60D0A000000008F
:1016A00041542B43574D4F44453D310D0A00000036
:1016B00041542B43574D4F4445CFECD3A6B3C9B942
:1016C000A60D0A00D400002074302E7478743D22D8
:1016D00041542B43574D4F4445CFECD3A6B3C9B922
:1016E000A622FFFFFF6A302E76616C3D2564FFFF66
:1016F000FF00000041542B4357444843503D312CD8
:10170000310D0A0041542B435744484350CFECD38A
:10171000A6B3C9B9A60D0A0074302E7478743D22A0
:1017200041542B435744484350CFECD3A6B3C9B9D7
:10173000A622FFFFFF6A302E76616C3D2564FFFF15
:10174000FF000000474F54204950000041542B43F4
:10175000574A41503D2241535553222C22313233B6
:1017600034353637383930220D0A000041542B43C6
:10177000574A4150CFECD3A6B3C9B9A60D0A000011
:1017800074302E7478743D2241542B43574A415093
:10179000CFECD3A6B3C9B9A622FFFFFF6A302E76DD
:1017A000616C3D2564FFFFFF00000000434F4E4E7B
:1017B0004543540041542B43495053544152543DE6
:1017C00022544350222C223139322E3136382E31D8
:1017D00030302E313734222C393939390D0A000096
:1017E00041542B4349505354415254CFECD3A6B3E8
:1017F000C9B9A60D0A00000074302E7478743D2219
:1018000041542B4349505354415254CFECD3A6B3C7
:10181000C9B9A622FFFFFF6A302E76616C3D2564B0
:10182000FFFFFF0045535038323636B3F5CABCBB14
:10183000AFB3C9B9A60D0A0074302E7478743D2276
:1018400045535038323636B3F5CABCBBAFB3C9B90D
:10185000A622FFFFFF6A302E76616C3D2564FFFFF4
:10186000FF00000070B50E4605466424FFF78CFEAD
:101870002846FEF788FD82B24FF6FF7329460C48D2
:1018800002F09CF80FE000BF00F042F840B931468A
:101890000848FEF750FD18B1FFF776FE002070BD36
:1018A000142000F0BBFC641EE4B2EDD2012070BD38
:1018B000F4060020E450002010B5FEB00446FFF707
:1018C00063FE2046FEF75FFD02460BA1684603F06B
:1018D00011FC0DA16846FFF7C5FF002809D120467D
:1018E000FEF751FD82B24FF6FF732146074802F022
:1018F00065F87EB010BD000041542B43495053455C
:101900004E443D25640D0A004F4B0000F4060020B4
:101910000848B0F8001141B1B0F80221914206D157
:101920000021A0F800110846704701207047A0F878
:101930000211FAE7E450002072B6FEE7FEB52E4A27
:101940002E4CA2F108009FED2E1A0178278802EB99
:101950008102D2ED000A00F1140202EB810191ED47
:10196000000A17B34FF47A7207FB02F101EE901AE6
:10197000F8EE611A81EE802A01EE907A94ED020A67
:10198000F8EE611A32EE000A81EEA02A84ED020A16
:1019900041683944416010EE100A1A49884284EDCA
:1019A000012A04DB84ED021A01E084ED011AA0682B
:1019B000FFF72CF805460E466068FFF727F841EC64
:1019C000100B8DE8E00053EC102B0FA003F082FB0E
:1019D000A068FFF71BF805460E466068FFF716F88B
:1019E00041EC100BCDE9005653EC102B15A003F081
:1019F0000DFA00202080FEBD08010020E85B0020D9
:101A00000000000000247449CBB2BCE4C1F7C1BFA0
:101A1000A3BA252E3266A3A84C2F6D696EA3A92008
:101A2000C0DBBCC6C1F7C1BFA3BA252E3266206D8C
:101A30004C202020C2F6B3E5CAFDA3BA2564200AD3
:101A40000000000074352E7478743D2225302E324B
:101A50006622FFFFFF74362E7478743D2225302EE7
:101A6000306622FFFFFF0000044D4FF0FF34214697
:101A7000686A04F051FAFFF761FFF8E70000002000
:101A800078B50024009490F83C20012A19D0012256
:101A900080F83C200A6807230568092A13D9EE68F4
:101AA0000A3A02EB420293409E43EE600B788A684A
:101AB0000A3B03EB43039A400368DD682A43DA607C
:101AC00010E0022078BD2E6902EB420293409E4353
:101AD0002E610B788A6803EB43039A4003681D6903
:101AE0002A431A614A681F23072A13D205686E6BBE
:101AF000521E02EB820293409E436E630B790A886A
:101B00005B1E92B203EB83039A4003685D6B2A432A
:101B10005A6327E005680D2A12D22E6BD21F02EB02
:101B2000820293409E432E630B790A88DB1F92B298
:101B300003EB83039A4003681D6B2A431A6311E089
:101B4000EE6A0D3A02EB820293409E43EE620B79FD
:101B50000A880D3B92B203EB83039A400368DD6A67
:101B60002A43DA62164B0568144A9D4206D10D6875
:101B7000122D03D1556845F48005556005689D42D6
:101B800018D10B68102B01D0112B13D1536843F4DB
:101B900000035360096810290CD10A490A4A0968F0
:101BA000B1FBF2F101EB8101490000E0491E009117
:101BB0000029FBD180F83C40002078BD0023014083
:101BC000002001403400002040420F007047704761
:101BD000704770B504004FF0000503D0206C00265C
:101BE00010B107E0012070BD204600F01DF86664CA
:101BF00084F83C60206CC00610D4206C20F488501F
:101C000040F0020020642046FFF7DCF96664206C97
:101C100020F0020040F00100206400E0012584F87B
:101C20003C60284670BD000070B586B006461421A1
:101C30006846FEF775FB1D493068884234D11C4860
:101C40000025016841F480710160006800F4807033
:101C5000059017481438016841F0010101600068DF
:101C6000694600F001000590022000900320CDE9B4
:101C70000105104800F0E4FA104C0F48C4E90005D3
:101C80000015A560C4E90350800060618000A06178
:101C90008011C4E907052046656200F01DFA08B10D
:101CA000FFF74AFEB463A66306B070BD0020014092
:101CB00044380240000002401064024068050020E1
:101CC000F8B5044600200E46009094F83C10012917
:101CD00007D0012184F83C1021688B68DB0702D013
:101CE00011E00220F8BD8B6843F001038B6040498E
:101CF000404B0968B1FBF3F101EB410100E0491EE3
:101D000000910029FBD121688B68DB0503D58B6826
:101D100023F480738B6021688B68DB075DD0236CB4
:101D200040F20165AB4343F480732364496849057D
:101D300005D5216C21F4005141F480512164216CBE
:101D4000C90404D5616C21F00601616400E060649F
:101D500084F83C00A16B2948274DC863A16B284833
:101D60000864A16B2748C86421686FF022000860EE
:101D70002068416841F0806141602068816841F4D9
:101D8000807181602168134632464C31A06B00F0AF
:101D90000DFA68681C49C006206806D0884224D124
:101DA000816811F0405F13D01FE08842F8D0174AD5
:101DB000904203D1D1F80423D206F1D0144A9042C4
:101DC00013D1D1F8041301F01F011029E8D30CE05E
:101DD000816841F08041816007E0206C40F0100094
:101DE0002064606C40F0010060640020F8BD0000D9
:101DF0003400002040420F0000230140370F00084C
:101E0000BB0F0008A50F0008002001400021014081
:101E10000022014010B50446002094F83C1001292E
:101E20000CD0012184F83C1021688A6822F001025C
:101E30008A6021688A68D20702D01DE0022010BDA6
:101E40008A6822F480728A60A16B91F83520022A98
:101E500007D1084600F014F818B1216C41F0400198
:101E6000216421684A6822F080624A60216C21F472
:101E7000885141F001012164002184F83C1010BD1B
:101E80002DE9F0410446876D00F0DCFA064694F82F
:101E900035000025022806D08020606584F8345083
:101EA0000120BDE8F0812068016821F01601016081
:101EB0002068416921F080014161206C08B9A06C63
:101EC00020B12068016821F00801016020680168E4
:101ED00021F0010101600CE000F0B4FA801B05283C
:101EE00007D920206065032084F8350084F8345039
:101EF000D7E720680068C007EED194F85C103F2057
:101F00008840B860012084F8350084F834500020FF
:101F1000C7E790F83510022903D0802141650120E0
:101F20007047052180F835100068016821F0010133
:101F300001600020704700002DE9F84304464FF08F
:101F40000009CDF8009063484FF41651A56D006864
:101F5000B0FBF1F72E6894F85C10082000FA01F14C
:101F600031420FD021680A6852070BD50A6822F067
:101F700004020A6094F85C108840A860606D40F02C
:101F80000100606594F85C104FF0010808FA01F058
:101F9000304208D021684969090604D5A860606DFF
:101FA00040F00200606594F85C10042088403042E4
:101FB00008D021680968890704D5A860606D40F0E1
:101FC0000400606594F85C1010208840304218D0FE
:101FD00021680968090714D5A860206801684903C9
:101FE00004D50068000308D5A16C07E00168C905A5
:101FF00003D4016821F008010160216C09B1204679
:10200000884794F85C1020208840304231D0216805
:102010000968C9062DD5A86094F835000528206800
:10202000016806D0490347D5006800031DD4616CE0
:102030001CE021F0160101602068416921F0800157
:102040004161206C08B9A06C20B12068016821F0C2
:102050000801016094F85C103F208840A86084F873
:10206000358084F83490216D1FE0E16B09B1204682
:102070008847606D00282BD0606DC00714D0052004
:1020800084F835002068016821F0010101600098A2
:10209000401C0090B84203D820680068C007F6D101
:1020A00084F8358084F83490E16C002910D001B0B8
:1020B0002046BDE8F04308470168C905D5D401684A
:1020C00021F01001016084F8358084F83490CCE769
:1020D000BDE8F883340000202DE9F041044600F00B
:1020E000B1F906465CB1022084F83500002584F879
:1020F00034502068016821F0010101600DE00120E9
:10210000BDE8F08100F09EF9801B052805D920204C
:102110006065032084F83500F2E720680068C00796
:10212000F0D12268116820480140D4E90103184326
:10213000D4E903363343184363691843A36918434A
:10214000E3691843236A18430843616A042903D1E9
:10215000D4E90B1319430843106020684069666A8C
:1021600020F0070130460E43012704280CD1A06A55
:102170000643E06A40B12046FFF77AF820B14020DC
:10218000606584F83570BAE7206846612046FFF73D
:102190005BF894F85C203F2191408160656584F88C
:1021A00035700020ACE700003F8010F02DE9F041D1
:1021B0000446866D90F83400002501280DD00120DA
:1021C00084F8340094F835700020012F07D084F88B
:1021D000340002252846BDE8F0810220FBE70227F3
:1021E00084F8357060652046FFF76CF894F85C1051
:1021F0003F208840B0602068016841F0160101600E
:10220000206C20B12068016841F00801016020685D
:10221000016841F001010160DCE7000070B504468F
:1022200000F010F90546601C02D004480078044410
:1022300000F008F9401BA042FAD370BD280000202E
:102240002DE9F84FDFF8BCA10022012503264FF04D
:102250000F090AF1040BAAF1040E00BF0B6805FA7E
:1022600002F42340A34270D10F7907F00307012F36
:1022700001D0022F16D187684FEA420806FA08FCFF
:1022800027EA0C07D1F80CC00CFA08FC4CEA070C42
:10229000C0F808C04768A7430C79C4F30014944001
:1022A0003C4344600C79E443A4070AD0C4684FEA75
:1022B000420C06FA0CF7BC438F6807FA0CF7274369
:1022C000C7600C7904F00304022C12D1D40800EB8F
:1022D000840CDCF820405707FF0E09FA07F824EABF
:1022E0000804D1F8108008FA07F848EA0408CCF886
:1022F000208004684FEA420C06FA0CF7BC430F79C1
:1023000007F0030707FA0CF7274307604C6814F43B
:10231000403F70D03C4C276847F4804727602468D2
:1023200022F0030704F480440094384C07EB040CBB
:10233000DCF8084897074FEA177809FA08F7BC4312
:10234000334FB84202D1002724E054E0314FB84265
:1023500001D101271EE0304FB84201D1022719E018
:102360002E4FB84201D1032714E02D4FB84201D1BE
:1023700004270FE02B4FB84201D105270AE02A4F6E
:10238000B84201D1062705E0284FB84201D10727FE
:1023900000E0082707FA08F72743CCF80878DAF8AE
:1023A00000405746D1F804C09C435FEACC2C00D5CE
:1023B0001C433C60DBF800405F46D1F804C09C43FE
:1023C0005FEA8C2C00D51C433C60DEF80040774669
:1023D000D1F804C09C435FEA8C3C00D51C433C60B0
:1023E000084F083F3C68D1F804C09C435FEACC3CEE
:1023F00000D51C433C60521C102AFFF42FAFBDE8EF
:10240000F88F0000083C0140443802400030014091
:10241000000002400004024000080240000C02409C
:10242000001002400014024000180240001C02404C
:102430000069084000D0012070470AB181617047EF
:102440000904FBE70148806870470000280000206D
:10245000024881680278114481607047280000209A
:102460000B4810B5016841F400710160016841F446
:1024700080610160016841F480710160032000F017
:1024800099F80F2000F006F800F04AF8002010BD7F
:10249000003C024030B505461C4887B00024016866
:1024A00041F001010160006806A900F00100009000
:1024B00001A800F02BF900F059F915494000B0FBD4
:1024C000F1F11548134A491E026040F2E732C0E9B3
:1024D0000324C0E90114846100F020FD040012D13E
:1024E0000D4800F0CBFD04000DD1192000F034F8A8
:1024F000102D07D200222946192000F03BF807488A
:10250000056000E0012407B0204630BD4438024099
:1025100040420F0000000140C00700202C000020B6
:102520000C4882B0016841F480410160006800F409
:10253000804000900748001F016841F08051016011
:102540000068002200F0805000900F21901E02B021
:1025500000F010B844380240002809DB00F01F02E8
:10256000012191404009800000F1E020C0F80011F5
:1025700070470000F0B40E4B1B680C46C3F30223F7
:10258000C3F10705042D00D90425191D072901D21F
:10259000002300E0DB1E012606FA05F1491E21405A
:1025A00099409E40761E16403143F0BC02F0CCBDEF
:1025B0000CED00E0064900F0070208684FF6FF0343
:1025C000184040EA0220034A1043086070470000A8
:1025D0000CED00E00000FA052DE9F0470E4605007D
:1025E00065D0DFF81481D8F80000F7B200F00700DA
:1025F000B04207D288F80070D8F8000000F0070059
:10260000B04254D128683D4C810712D5400703D50C
:10261000206840F4E05020602878000703D5206847
:1026200040F4604020602068A96820F0F000084372
:1026300020602878C0072DD0304968680839012803
:1026400012D0022813D0032811D009688907002965
:102650002DDA216821F0030101432160FFF7F2FE2A
:10266000814641F2883A0EE009688903EFE709687C
:102670008901ECE7FFF7E6FEA0EB0901514502D91D
:102680000320BDE8F0872068696800F00C00B0EB1B
:10269000810FEFD1D8F80010404601F00701B14298
:1026A00007D90770006800F00700B04201D0012090
:1026B000E7E72878400705D52068E96820F4E0506E
:1026C000084320602878000706D52068296920F48F
:1026D000604040EAC100206000F058F82168084AD4
:1026E000C1F30311515CC840064908600648006800
:1026F000FFF7D0FE0020C4E7003C0240083802404B
:1027000084840008340000202C0000200F22026086
:102710000C4A136803F003034360136803F0F003EB
:102720008360136803F4E053C36012684FF4E0530E
:1027300003EAD20202610448006800F00700086062
:102740007047000008380240003C02400448054938
:1027500000680968044AC1F38221515CC84070478F
:1027600034000020083802409484000804480549D9
:1027700000680968044AC1F34231515CC84070479F
:10278000340000200838024094840008154810B531
:10279000006810F00C02144813D04110042A0FD026
:1027A000082A0ED10F4C241F2268236802F03F0232
:1027B0005B0207D52068C0F38810A0FB010106E08A
:1027C000084610BD2168C1F38811A1FB0001002358
:1027D000FDF756FD2168C1F30141491C4900B0FBDA
:1027E000F1F010BD083802400024F4002DE9F84F44
:1027F00004006ED02078DFF84C93C007A9F10405DF
:102800004AD009F104000168C1F38101012908D00F
:102810000068C0F3810002280AD1D9F80000400204
:1028200006D52868800337D560680028E1D033E0FA
:102830006068B0F5803F10D0B0F5A02F286810D0A8
:1028400020F480302860286820F4802028606068A8
:10285000A8B1FFF7F7FD06460DE0286840F4803088
:10286000F4E740F480202860F7E700BFFFF7EAFDB7
:10287000801B642873D828688003F7D50CE0FFF725
:10288000E1FD064605E000BFFFF7DCFD801B642884
:10289000F0D828688003F7D42078DFF8AC8280076E
:1028A0004FF0000A3ED5A748001D016811F00C0F3B
:1028B00008D00068C0F3810002280BD1D9F80000CD
:1028C000400207D42868800716D5E068012800D1A7
:1028D00012E033E1E068B8B10120C8F80000FFF76A
:1028E000B1FD064605E000BFFFF7ACFD801B0228E6
:1028F000C0D828688007F7D52868216920F0F8003B
:1029000040EAC10028600DE0C8F800A0FFF79AFD7A
:10291000064604E0FFF796FD801B02281FD82868B2
:102920008007F7D42078000722D5864F8748616951
:10293000703771B101210160FFF784FD064604E0A4
:10294000FFF780FD801B022809D838688007F7D57B
:102950000EE0C0F800A0FFF775FD064605E082E036
:10296000FFF770FD801B02287DD838688007F7D4F8
:102970002078400768D5DFF8CCB100270BF13C0B7D
:10298000DBF80000C0000BD4DBF8001041F08051F0
:10299000CBF80010DBF80000012700F08050009019
:1029A0006B4E3068C00510D4306840F480703060E1
:1029B000FFF748FD009005E0FFF744FD0099401A3D
:1029C000022850D83068C005F6D55E4EA0686C3637
:1029D00001280FD00528306810D020F001003060A9
:1029E000306820F004003060A068B8B1FFF72AFD1D
:1029F00000900FE0306840F00100F4E740F0040080
:102A00003060F7E7FFF71EFD0099411A41F2883068
:102A1000814266D830688007F4D50EE0FFF712FDDA
:102A2000009007E0FFF70EFD0099411A41F288304F
:102A3000814256D830688007F4D42FB1DBF80010FB
:102A400021F08051CBF80010A069C8B33D49091DA1
:102A50000968C1F3810102294AD00228504607D0F3
:102A6000C8F8600000E03CE0FFF7ECFC04463BE007
:102A70004746C8F86000FFF7E5FC064605E000BFE2
:102A8000FFF7E0FC801B02282BD828688001F7D4D0
:102A9000D4E907010843A16A2E4A490802EB014123
:102AA000626A41EA8211084394F82C1040EA0161FD
:102AB000C9F8001001203866FFF7C4FC044606E0A0
:102AC0003EE000BFFFF7BEFC001B022809D82868C3
:102AD0008001F7D534E000BFFFF7B4FC001B0228EB
:102AE00002D90320BDE8F88F28688001F4D427E0DC
:102AF0000128F7D0D9F80000E26900F48001914282
:102B00001CD1226A00F03F01914217D147F6C071F3
:102B1000626A0140B1EB821F10D1A26A4FF0FF330D
:102B200000F4403103EB5202B1EB024F06D194F8AE
:102B30002C1000F07060B0EB016F01D00120D1E7E4
:102B40000020CFE70438024000004742800E474291
:102B5000007000400000FFFF70B5040009D0606AFB
:102B6000002540B125616561A56294F8510040B12E
:102B70000CE0012070BD6068B0F5827FF4D0E561A3
:102B8000F2E784F85050204600F044F8022084F820
:102B900051002068016821F040010160A08821896E
:102BA00000F4827001F404410843A18901F400613A
:102BB0000843217C01F002010843217D01F001015D
:102BC0000843218B01F400710843217F01F0380193
:102BD000084394F8201001F080010843218D01F48E
:102BE0000051084321680860A069042101EA1040EF
:102BF00094F8241001F0100108432168486020680F
:102C0000C16921F40061C1616565012084F851004A
:102C1000002070BDF0B587B0044614216846FDF76A
:102C20007FFB1C492068884232D11B480024016880
:102C300041F480410160006800F48040059016482E
:102C40001038016841F004010160016801F00401DD
:102C50000591016841F0020101600068022500F061
:102C6000020005900C20CDE9000502AA03260527E5
:102C700082E8D00069460948FFF7E2FA2803CDE967
:102C8000000502AA694682E8D0000548FFF7D8FA95
:102C900007B0F0BD00380040403802400008024054
:102CA000000402402DE9F84F044690F85000002738
:102CB0000A9E1D4692468B464FF0010901280ED010
:102CC000012084F85000FFF7BDFB804694F85100C6
:102CD000616801280CD0B1F5827F07D102E00220A3
:102CE000BDE8F88FA16809B9042801D00227C2E025
:102CF000BBF1000F27D0BAF1000F24D01DB394F818
:102D00005100042802D0052084F85100002060659D
:102D1000C4F838A0E587A587C4F830B0E586A58655
:102D20002064606420680168490603D4016841F0AA
:102D300040010160E068B0F5006F606805D0E8B35D
:102D4000012D46D07FE0012795E008B1012D39D152
:102D5000206B21680088C860206B801C2063E08E97
:102D6000401EE0862EE02068816889070FD5E18E3D
:102D700069B1B9F1010F0AD1216B0988C160206BDB
:102D8000801C2063E08E401EE0864FF00009206822
:102D90008168C9070CD0E18F51B1C068A16B088070
:102DA000A06B801CA063E08F401EE0874FF00109FC
:102DB000FFF748FBA0EB0800B04200E009E001D3B8
:102DC000701C50D1E08E0028CDD1E08F0028CAD1F0
:102DD0003FE0206B216800780873206B401C206363
:102DE000E08E401EE0862EE02068816889070FD5BE
:102DF000E18E69B1B9F1010F0AD1216B0978017334
:102E0000206B401C2063E08E401EE0864FF00009DE
:102E100020688168C9070CD0E18F51B1C068A16BEF
:102E20000870A06B401CA063E08F401EE0874FF04D
:102E30000109FFF707FBA0EB0800B04202D3701CAA
:102E400001D010E07EB1E08E0028CDD1E08F0028C7
:102E5000CAD142463146204601F006FC28B101277E
:102E60002020606507E0032705E0A06818B9206806
:102E7000C16880680090012084F85100002084F827
:102E8000500038462CE770477047000070B590F846
:102E90003C20012A32D0012480F83C40022280F8F4
:102EA0003D2003685A689D6822F070060A68324324
:102EB0005A60134B02689A4214D0B2F1804F11D07D
:102EC000104B9A420ED0104B9A420BD00F4B9A42A5
:102ED00008D00F4B9A4205D00E4B9A4202D00E4BAF
:102EE0009A4204D1496825F080031943916080F823
:102EF0003D40002180F83C10084670BD022070BDA6
:102F0000000001400004004000080040000C0040A8
:102F100000040140004001400018004010B50400CA
:102F200003D094F83D0010B107E0012010BD00204F
:102F300084F83C00204600F01FF8022084F83D0091
:102F4000211D206801F03EFD012084F8460084F830
:102F50003E0084F83F0084F8400084F8410084F883
:102F6000420084F8430084F8440084F8450084F863
:102F70003D00002010BD000010B586B004461421AD
:102F80006846FDF7CDF921681B48B1F1804F14D098
:102F90001A4A91420FD1016841F020010160006896
:102FA000002200F02000059005213720FFF7E2FA0B
:102FB0003720FFF7D1FA06B010BD016841F00101DA
:102FC0000160006800F0010005900B4810380168AE
:102FD00041F0010101600068694600F001000590C0
:102FE0002020009002200190029003900120049084
:102FF0000348FFF725F9DEE740380240001400409F
:103000000000024090F83D10012901D001207047D6
:10301000022180F83D1000681149884214D0B0F1B7
:10302000804F11D00F4988420ED00F4988420BD0F3
:103030000E49884208D00E49884205D00D49884281
:1030400002D00D49884204D1816801F007010629A8
:1030500003D0016841F001010160002070470000C9
:10306000000001400004004000080040000C004047
:1030700000040140004001400018004090F83D105D
:10308000012901D001207047022180F83D1001681C
:10309000CA6842F00102CA6000681149884214D02F
:1030A000B0F1804F11D00F4988420ED00E498842AE
:1030B0000BD00E49884208D00D49884205D00D49F1
:1030C000884202D00C49884204D1816801F007018E
:1030D000062903D0016841F001010160002070471A
:1030E000000001400004004000080040000C0040C7
:1030F00000040140004001400018004001680A6AD5
:1031000041F211131A4207D10A6A9B101A4203D1E5
:103110000A6822F001020A60012180F83D100020B7
:1031200070470168CA6822F00102CA6001680A6A31
:1031300041F211131A4207D10A6A9B101A4203D1B5
:103140000A6822F001020A60012180F83D10002087
:10315000704770B5044690F83C000025012817D050
:10316000012684F83C60022084F83D0020688268D3
:1031700022F0770222F47F4282600868502838D01B
:103180000DDC20284FD005DC90B3102811D14AE087
:10319000022070BD302846D040280AD13BE060288C
:1031A0002FD070280DD0B0F5805F03D0B0F5005F50
:1031B00012D0012584F83D60002084F83C002846A8
:1031C00070BDCB68D1E90121206801F05FFC206867
:1031D000816841F0770109E0CB68D1E901212068DD
:1031E00001F054FC2068816841F480418160E1E78E
:1031F00019E0CA684968206801F05AFC502120682B
:1032000006E0CA684968206801F063FC6021206814
:1032100001F046FCCEE7CA684968206801F048FC26
:1032200040212068F4E7226801461046F0E7704725
:1032300070B50446006801694FF00005C94389076D
:1032400015D4C168C943890711D4E91E0161012061
:103250002077206880698007204602D0FFF7E7FFCB
:1032600004E000F098F8204600F096F825772068F2
:103270000169C943490717D4C168C943490713D431
:103280006FF004010161022020772068806910F44A
:10329000407F204602D0FFF7CAFF04E000F07BF831
:1032A000204600F079F8257720680169C9430907AD
:1032B00016D4C168C943090712D46FF0080101612F
:1032C000042020772068C0698007204602D0FFF7DD
:1032D000AEFF04E000F05FF8204600F05DF82577CF
:1032E00020680169C943C90617D4C168C943C90622
:1032F00013D46FF010010161082020772068C069A5
:1033000010F4407F204602D0FFF791FF04E000F068
:1033100042F8204600F040F8257720680169C9434B
:10332000C90708D1C168C943C90704D1891E016111
:10333000204600F033F820680169C943090609D422
:10334000C168C943090605D46FF0800101612046B8
:10335000FFF799FD20680169C943490609D4C1688E
:10336000C943490605D46FF040010161204600F0D1
:1033700039F820680169C94389060BD4C168C9437B
:10338000890607D46FF0200101612046BDE8704036
:10339000FFF77ABD70BD70477047000010B5044656
:1033A00000680B49884201D1FFF752F809492068AB
:1033B00088420CD108480068416A084A11800021FF
:1033C000416207480068BDE8104002F01FBE10BD12
:1033D000000001400014004020060020E85B0020AF
:1033E000240000207047704770470000F8B501685E
:1033F00004460868CA684B6910F00F0F4FF00005CB
:1034000059D003F0010602F49077374365D0C10725
:1034100005D0D10503D5216C41F00101216441079C
:1034200005D5D90703D0216C41F002012164810741
:1034300005D5D90703D0216C41F0040121640107AF
:1034400007D502F02001314303D0216C41F008017F
:103450002164216C00293AD0800604D5900602D55B
:10346000204601F07EFB20684069216CC0F380108B
:10347000090700D460B3204601F04CFB2068406986
:10348000400621D52068143050E8001F21F040018B
:1034900040E80012002AF5D1A06BA8B16C49016583
:1034A000A06BFEF736FD002811D0A06B016D01B0B6
:1034B000BDE8F040084783060FD593060DD520469A
:1034C000BDE8F84001F04DBB2046FFF78DFFF8BD89
:1034D0002046FFF789FF2564F8BD266B2023012EC7
:1034E00079D1C60677D5D60675D5086848680090A4
:1034F0004869400640D5A16B086840680004000C8C
:10350000EAD0A28D8242E7D9E085C869B0F5807F14
:103510002DD020680C3050E8001F21F4807140E865
:103520000012002AF5D12068143050E8001F21F065
:10353000010140E80012002AF5D12068143050E85B
:10354000001F21F0400140E80012002AF5D184F864
:103550003E30256320680C3050E8001F21F0100138
:1035600040E80012002AF5D1A06BFEF789FCA08D7F
:10357000E18D401A81B229E0A08DE18D401A81B21F
:10358000E08D0028A8D00029A6D020680C3050E893
:10359000002F22F4907240E80026002EF5D120681A
:1035A000143050E8002F22F0010240E80026002EDF
:1035B000F5D184F83E30256320680C3050E8002FA8
:1035C00022F0100240E80023002BF5D12046FFF73F
:1035D0000AFFF8BDFFE705062BD5150629D594F897
:1035E0003D002128F5D1A068B0F5805F01D12069A8
:1035F000B0B1206A411C2162216800784860E08CEB
:10360000401E0004000CE084E3D12068C16821F072
:103610008001C1602068C16841F04001C160D8E705
:10362000206A0088C0F308004860206A801C20627D
:10363000E5E74006CDD55006CBD5CA68204622F036
:103640004002CA6084F83D3000F011FAC1E7000082
:10365000054B000870B5040004D094F83D00002527
:1036600010B106E0012070BD84F83C50204600F007
:1036700023F8242084F83D002068C16821F400511B
:10368000C160204601F0CEFA2068016921F4904122
:1036900001612068416921F02A0141612068C16807
:1036A00041F40051C1602564202084F83D0084F875
:1036B0003E00002070BD0000F0B587B00446142124
:1036C0006846FCF72DFE5249504826680023504AB0
:1036D0001039022403254FF4406C864221D1106832
:1036E00040F400201060106800F400200590086885
:1036F00040F0040008600868CDF800C000F0040045
:1037000005900820CDE90350CDE9014369464148C1
:10371000FEF796FD002205213420FEF72BFF342012
:1037200027E0DFF8F4E007273C48764525D1384A02
:10373000121D166846F010061660126802F010029C
:1037400005920A6842F001020A60096802AA01F0C3
:10375000010105914FF4C061CDE9001482E8A80091
:103760006946FEF76DFD002205212520FEF702FFC8
:103770002520FEF7F1FE07B0F0BDDFF8A4E07645A6
:103780001FD1166846F400361660126802F4003243
:1037900005920A6842F001020A60096802AE01F06F
:1037A000010105910C21CDE9001486E8A8006946C5
:1037B000FEF746FD002205212620FEF7DBFE26202F
:1037C000D7E718488642D6D1106840F480201060B0
:1037D000106800F480200590086840F0020008603E
:1037E0000868CDF800C000F00200CDE90470039530
:1037F000CDE9014369460C48FEF722FD0022052170
:103800002720FEF7B7FE2720B3E70000004C00405A
:103810004038024000080240001001400000024011
:1038200000440040004800400004024090F83E3050
:10383000202B0ED159B152B190F83C30012B08D059
:10384000012380F83C300023036301F071BA0120AA
:1038500070470220704700002DE9F0414B490646B1
:10386000006809684A4F00254A4C88421AD14A48E4
:10387000B0F80011FF2901D3A0F80051B0F80021E1
:10388000E1788154B0F80021521CA0F800217D2974
:1038900002D1386802F0BAFB3E490122C91C3B48FC
:1038A000FFF7C4FF3D4930684FF6FF78096888424A
:1038B00038D160783F2807D3657043460A2238A183
:1038C000364800F07BF827E022793849FF2A02D0F9
:1038D0000A2A10D020E02378F3B90B1813F8013C22
:1038E000FF2B04D00A7001206070207014E00A548D
:1038F000401C607010E00B1813F8013C0D2B0BD12D
:103900002378012B08D10A54401CC0B260700D54BA
:103910002570386802F07AFB1E490122091D1F48F4
:10392000FFF784FF22493068096888422CD1A078CB
:10393000FF280BD3A570FF211E48FCF7F1FC43467E
:103940000A2217A11A4800F039F815E019496279DE
:103950000A54401CC0B2A070084410F8011C0A2987
:103960000AD110F8021C0D2906D100F8025C124899
:10397000A570006802F04AFBBDE8F041054901224C
:10398000491D0B48FFF752BFBDE8F081F406002047
:1039900020000020F4000020E45000203807002020
:1039A000CAFDBEDDD2E7B3F6000000009658002045
:1039B0007C070020D55900201C0000202DE9F84389
:1039C000044690F83D001F4616460D4620284CD16F
:1039D000C5B1BEB194F83C00012846D0012084F85E
:1039E0003C004FF00008C4F84080212084F83D00DE
:1039F000FEF728FDA6848146E684A068B0F5805FC6
:103A000003D004E00120BDE8F883206928B12E46E8
:103A10005FF0000584F83C800EE00026FAE7802184
:103A2000204601F0A2F9A0B9AEB116F8010B216849
:103A30004860E08C401EE084E08C4B464FF0000272
:103A400000970028EBD14FF04001204601F08DF99E
:103A500030B10320D7E735F8020BC0F30800E6E7E2
:103A6000202084F83D000020CDE70220CBE77047FE
:103A700030B58FB02A492BA001F02CFB2DA128488E
:103A8000FCF788FC78B12CA12548FCF783FC2C4D71
:103A90002C4C78B12CA12248FCF77CFC00282ED0BD
:103AA0002BA001F017FB0FB0FF21BDE830401C48F0
:103AB000FCF736BC20780128F5D160780128F2D1D6
:103AC0000020607001F0F8FA6420FEF7A7FB0122E5
:103AD00008212846FEF7B1FC6420FEF79FFB204832
:103AE0008068FCF793FFCDE90001A2781D4B1EA171
:103AF00002A801F0FFFA02A8FDF7DEFED3E7207866
:103B00000128D0D160780028CDD10120607001F06B
:103B1000B3FA002208212846FEF78FFCC3E7000015
:103B2000D5590020484D4942756666203D20222522
:103B300073220D0A00000000636C6F7365000000C3
:103B400000100240D40000206F70656E000000007D
:103B5000B4AEBFDAC6C1CEB4D6AACAFDBEDD0A0075
:103B6000E85B0020DD5B00207B2264697370656E7A
:103B70007365725F6964223A25642C226361726402
:103B8000223A222573222C22616D6F756E74223ABF
:103B9000252E316C667D0000044D4FF0FF34214628
:103BA000E86902F0B9F9FFF763FFF8E700000020C9
:103BB000FEE7000010B507A001F08CFA0A48642166
:103BC00081800AA001F022F9BDE810404FF4FA709C
:103BD000FEF724BB4C6F5261B3F5CABCBBAFB3C98F
:103BE000B9A60D0A00000000D400002074302E7425
:103BF00078743D224C6F5261B3F5CABCBBAFB3C9F8
:103C0000B9A622FFFFFF6A302E76616C3D2564FF66
:103C1000FFFF00002DE9F0410E460746154604213E
:103C2000052000F029F80021012000F0FBF8802198
:103C30000A2000F0EBF8002404E0395D092000F0D0
:103C4000F1F8641CB442F8D30321012000F0EAF833
:103C5000084C052000F0BCF8641E01D04007F8D5E0
:103C6000222000F0B5F82870212000F0B1F868702B
:103C7000BDE8F081A086010070B50C46054600F055
:103C8000A7F820EA04012846BDE8704000F0CAB851
:103C90002DE9FF5F0027FE25DDF838A016468B468C
:103CA0008146B8460C2805D0B9F10E0F05D1122770
:103CB000102001E077273020804647F08001022065
:103CC00000F0B0F880210420FFF7D6FF002101208A
:103CD00000F0A8F880210A2000F098F8002405E000
:103CE0001BF80410092000F09DF8641CB442F7D3BF
:103CF0004946012000F096F8B9F10C0F03D180215C
:103D00000D2000F083F8294E042000F061F80446ED
:103D1000761E04D0E00702D114EA080FF4D0802107
:103D20000D20FFF7A9FF36B1062000F051F810F082
:103D30001B0F0CD0FE2580210C2000F067F800211D
:103D4000012000F06FF804B02846BDE8F09F002580
:103D50003C40E00700D0FF25B9F10C0FEBD10A2061
:103D600000F036F804460C2000F032F810F007009E
:103D70004FEAC40104D008390844AAF8000001E061
:103D8000AAF8001024B1122C04D91224002603E052
:103D90000124FBE7002605E0092000F019F803994B
:103DA0008855761CA642F7D3C5E70000E0930400CF
:103DB00010B5064C012211022046FEF73EFB2046BC
:103DC0000122BDE810405102FEF737BB000402405B
:103DD00070B57E2101EA40000B4E40F080044FF4A4
:103DE0008075002229463046FEF727FB204600F06A
:103DF00029FC002000F026FC04460122294630461A
:103E0000FEF71BFB204670BD0004024070B50C4657
:103E10000546FFF7DDFF40EA04012846BDE8704093
:103E2000AFF300802DE9F0410E467E2101EA400407
:103E30000A4F4FF48075002229463846FEF7FDFAF6
:103E4000204600F0FFFB304600F0FCFB29463846D8
:103E5000BDE8F0410122FEF7F0BA00000004024084
:103E60007FB50024154800940194029412490394EC
:103E7000016001254FF440310561C0E90114057668
:103E800080F820400E49C0E90A14C561C46080F87A
:103E900030404561FDF79DFE08B1FDF74DFD0095F1
:103EA000CDE9015469460548FDF7EAFD002801D037
:103EB000FDF742FD7FBD00000020014020050020ED
:103EC0000100000F094808B5016841F48001016054
:103ED0000068002200F48000009005213820FEF7E1
:103EE00049FBBDE808403820FEF736BB30380240B9
:103EF00010B5224801F0DCFF214C204A0121A061CD
:103F00001032084602F036F81C4A0121E0612032E6
:103F1000084602F02FF8194A012120623032084683
:103F200002F028F8154A6062D83A0021154802F0DC
:103F300099F8124A2060B43A0021134802F092F82E
:103F40000E4A6060903A0021104802F08BF80B4A4C
:103F5000A0606C3A00210E4802F084F8074AE06045
:103F6000483A00210B4802F07DF8044A2061243AC7
:103F70000021094802F076F8606110BD3C84000819
:103F80000000002079470008993B000861500008B4
:103F9000354600083D4E0008691A00082DE9F04139
:103FA00086B014216846FCF7BBF92F484FF0000893
:103FB000016841F010010160016801F010010591F4
:103FC000016841F080010160016801F08001059104
:103FD000016841F004010160016801F004010591EC
:103FE000016841F001010160016801F001010591E2
:103FF000016841F00201016000681C4E00F00200FF
:104000000590002204213046FEF717FA012208210C
:104010003046FEF712FA164F4FF44075002229463B
:104020003846FEF70AFA04200124CDE900040320F3
:10403000CDE9024069463046FEF702F908200090BB
:1040400001AA112082E8110169463046FEF7F8F80E
:104050000220CDE90240CDE9005469463846FEF71A
:10406000EFF806B0BDE8F0813038024000100240A1
:1040700000040240104810B50E4901604FF48271EF
:10408000416000218160C1604FF400720161C0E9AC
:1040900005123022C0E90721416281620A21C16212
:1040A000FEF75AFD002803D0BDE81040FDF744BCE0
:1040B00010BD000000380040C805002010B586B0D3
:1040C00000241748009401940294039404944FF040
:1040D00080410594C0E90014611EC0E902410461F9
:1040E0008461FEF71BFF08B1FDF726FC4FF400507A
:1040F000CDE900040294694609480394FFF729F8C2
:1041000008B1FDF719FC049404A905480594FEF7CD
:10411000BDFE002801D0FDF70FFC06B010BD000069
:10412000200600201CB500240F4800940D4901947E
:10413000016042F2CF01C0E9011442F20F71C16087
:1041400080218161FEF7EAFE08B1FDF7F5FB0094DE
:10415000694605480194FEF799FE002801D0FDF755
:10416000EBFB1CBD00140040680600200C4810B595
:104170000A4901604FF4E1314160002181600C2265
:10418000C160C0E904128161C161FFF763FA0028D0
:1041900003D0BDE81040FDF7CFBB10BD004C004080
:1041A000B00600200C4810B50A4901604FF4E13117
:1041B0004160002181600C22C160C0E9041281616C
:1041C000C161FFF747FA002803D0BDE81040FDF7B2
:1041D000B3BB10BD00100140F40600200C4810B520
:1041E0000A4901604FF4E1314160002181600C22F5
:1041F000C160C0E904128161C161FFF72BFA002898
:1042000003D0BDE81040FDF797BB10BD004400404F
:10421000380700200C4810B50A4901604FF4E1311D
:104220004160002181600C22C160C0E904128161FB
:10423000C161FFF70FFA002803D0BDE81040FDF779
:104240007BBB10BD004800407C070020FEE7FEE776
:1042500003211420FFF710BD10B51420FFF7B8FD9F
:10426000800705D10321BDE810401420FFF7CEBD23
:1042700010BD70B50646082188B000240846FFF737
:10428000FBFC00210D20FFF7CDFD80210E20FFF764
:10429000F3FC93208DF8040020208DF8050006A87B
:1042A00001AB0090022219460C20FFF7F1FC05003B
:1042B0000DD1002101A8425C7254425C491C54405B
:1042C000C9B20429F7D3405CA04200D0FE2580216A
:1042D0000E20FFF79BFD08B0284670BD00B587B0E3
:1042E00050208DF8040000208DF805000DF1060225
:1042F000022101A8FFF78EFC06A801AB0090042262
:1043000019460C20FFF7C4FC07B000BD10B5FFF73D
:104310004FFD00F08FF8FFF79BFFFFF79DFF00F0C8
:1043200089F8412000F032F808A000F0D3FE0C48D4
:1043300081880A3189B281800AA000F067FDBDE85A
:1043400010404FF4FA70FDF769BF00005243353258
:1043500032B3F5CABCBBAFB3C9B9A60A00000000AE
:10436000D400002074302E7478743D2252464944A3
:10437000B3F5CABCBBAFB3C9B9A622FFFFFF6A3011
:104380002E76616C3D2564FFFFFF000010B54128CB
:1043900026D108210846FFF76FFC3D211120FFF7C9
:1043A00041FD86211720FFF73DFD7F212620FFF7E5
:1043B00039FD1E212D20FFF735FD00212C20FFF7B0
:1043C00031FD8D212A20FFF72DFD3E212B20FFF707
:1043D00029FD0220FDF722FFBDE81040FFF73CBF9A
:1043E00010BD30B50C460546082187B00846FFF7DA
:1043F00043FC07210D20FFF715FD03211420FFF7D3
:1044000005FD06A801AB00908DF804500122194665
:104410000C20FFF73DFC002809D1BDF81810102929
:1044200005D19DF8041021709DF80510617007B04A
:1044300030BD000070B50122204D540221462846AF
:10444000FDF7FBFF0220FDF7E9FE0022214628468A
:10445000FDF7F3FF0220FDF7E1FE01222146284689
:10446000FDF7EBFF0220FDF7D9FE0F210120FFF73A
:10447000D9FC0220FDF7D2FE3D211120FFF7D2FC2E
:104480001E212D20FFF7CEFC00212C20FFF7CAFCB7
:104490008D212A20FFF7C6FC3E212B20FFF7C2FC0E
:1044A00040211520FFF7BEFCFFF7D2FE0220FDF7EA
:1044B000B5FEBDE87040FFF7CFBE0000000402402B
:1044C00010B588B093218DF8041070218DF8051077
:1044D00000218DF80A1001AA5418435CA370445CB3
:1044E0009DF80A30491C6340C9B28DF80A3004298E
:1044F000F2D3072101A8D21DFFF78CFB0821084643
:10450000FFF7BAFB06A801AB0090092219460C2060
:10451000FFF7BEFB18B9BDF81810182900D0FE200F
:1045200008B010BD70B5284E8EB00025356075609E
:10453000358126495220FFF754FF98B92348FFF7E9
:1045400098FE78B92148FFF7BBFF2048C2788178F0
:10455000CDE90012437802781DA1304600F0CAFD73
:10456000FFF7BCFE1F4C207878B91DA11648FBF759
:1045700011FF50B1A278144B1BA1684600F0BAFDA0
:104580006846FDF799F90EB070BD20780128FAD180
:104590000D4901F10A00FBF7FDFE0028F3D046F8B3
:1045A0000A5F19A075603581257000F093FD012226
:1045B00008211C48FDF741FF65700EB01AA0BDE848
:1045C000704000F023BC0000D35B0020FB00002003
:1045D000253032582530325825303258253032585F
:1045E00000000000D40000207B2264697370656EB7
:1045F0007365725F6964223A25642C226361726478
:10460000223A222573227D004578697420757365EE
:1046100072206F7065726174696F6E206D6F646572
:104620000D0A000000100240706167652031FFFF35
:10463000FF0000004FF47A74FFF774FF204601F08A
:10464000FCFBF9E701B582B00A2000900123044A7F
:1046500002A90448FEF726FB014800780EBD0000C1
:10466000FA000020C805002038B504461248134B54
:104670000068B0FBF3F04FF47A7358430090606821
:10468000B0F5827F0DD10B4600920022802120469A
:1046900000F016F870B1606D40F0200060650320F6
:1046A00038BD009830B1401E009020688068C0433B
:1046B0000006F6D5002038BD3400002000366E011B
:1046C0002DE9F8431E46914688460446089DFDF7AD
:1046D000B9FE401B351AFDF7B5FE074625480068B0
:1046E000C0F3CB30684338E0701C37D0FDF7AAFE2A
:1046F000C01BA84203D215B1009860B32CE020681B
:10470000416821F0E00141606068B0F5827F0BD123
:10471000A068B0F5004F02D0B0F5806F04D12068DA
:10472000016821F040010160A06AB0F5005F09D185
:104730002068016821F4005101602068016841F49B
:1047400000510160012084F85100002084F85000DD
:104750000320BDE8F8830025401E00902068816892
:1047600038EA010004D000214945BDD10020F0E71E
:104770000121F9E7340000204FF47A74204601F05B
:104780005CFBFBE710B54FF0E020006903F0F8FB9D
:10479000012803D0BDE8104002F058BF10BD000052
:1047A00030B593B030216846FBF7BAFD14210CA850
:1047B000FBF7B6FD1D480025016841F080510160FE
:1047C000006800F0805011901948016841F4804160
:1047D00001600068022400F48040119001200090E4
:1047E000000401908001CDE9064008AA0420A82118
:1047F00082E813000B906846FDF7F8FF08B172B627
:10480000FEE70CA90F2081E831004FF4A0500F9073
:104810004FF48050109005210CA8FDF7DDFE002814
:1048200001D072B6FEE713B030BD00004038024040
:10483000007000400248016841F470010160704757
:1048400088ED00E070B52C4C2078012852D1002072
:104850002A4B2070024601468518401C53F825500B
:1048600032282944F8DB3220B1FBF0F12248801CC9
:1048700020F812100088FCF79DF89FED211B53ECE7
:10488000112BFCF714F89FED201B53EC112BFCF7B8
:104890000EF8FCF7FFF800EE900A1D48B3EE091A77
:1048A000DFED1C1AC0ED030A90ED020A30EE410A5A
:1048B000B7EE001A00EE211A84ED011A80EE810A8B
:1048C000DFED150A9FED151A84ED020A60EE200A4D
:1048D00020EE011A60EE800A60EE800A41EE400A86
:1048E0009FED0F1A20EE010AB6EE001A40EE010A03
:1048F000C0ED040A70BD0000E8000020D055002083
:104900006666666666660A40000000000000303F8A
:10491000D40000200AD7A33C856B054329DC7F43E4
:10492000F658564410B5FCF749FC64220A490B4876
:10493000FDF7C6F90AA000F0CDFB0F4881880A31C7
:1049400089B281800DA000F061FABDE810404FF4FB
:10495000FA70FDF763BC0000D05500202005002050
:10496000544453CBAED6CABCECB2E2B3F5CABCBB1E
:10497000AFB3C9B9A60D0A00D400002074302E745C
:1049800078743D22544453CBAED6CABCECB2E2B3E9
:10499000F5CABCBBAFB3C9B9A622FFFFFF6A302E70
:1049A00076616C3D2564FFFFFF0000000148FEF7C3
:1049B0003FBC0000C00700200148FEF739BC0000E2
:1049C00068060020F0B50268254C264D264E274F7C
:1049D000274B4FF0804CA04209D0604507D0A84239
:1049E00005D0B04203D0B84201D0984204D122F0A1
:1049F000700E4A6842EA0E02A0421BD0604519D0F0
:104A0000A84217D0B04215D0B84213D0984211D066
:104A1000184DA8420ED0184DA8420BD0174DA842F1
:104A200008D0174DA84205D0164DA84202D0164D09
:104A3000A84203D122F44075CA682A434D6922F086
:104A400080022A4302608A68C2620A688262A042C7
:104A500001D0984201D10969016301214161F0BD92
:104A6000000001400004004000080040000C00402D
:104A70000004014000400140004401400048014062
:104A800000180040001C00400020004010B5846861
:104A900042EA032224F47F440A432243826010BD89
:104AA000826822F070020A4342F007018160704779
:104AB00010B5036A046A24F001040462846924F0D6
:104AC000F00444EA021423F00A020A4384610262F9
:104AD00010BD10B5036A23F0100303628369046AF2
:104AE00023F4704343EA023224F0A00343EA0111A5
:104AF0008261016210BD00000148FEF777BC000032
:104B0000B006002010B5806B0021C185C184FEF77E
:104B10006BFC10BD01680C3151E8002F22F490723B
:104B200041E80023002BF5D10168143151E8002F32
:104B300022F0010241E80023002BF5D1016B01298D
:104B400009D101680C3151E8002F22F0100241E830
:104B50000023002BF5D1202180F83E1000210163B5
:104B6000704708B590F83E10222901D0022008BDF8
:104B700082684FF480539A4201D1016921B1816A60
:104B80009A421BD04AB10AE00268816A5268C2F3B5
:104B900008020A80816A891C08E0026972B1026811
:104BA000526802F07F020A70816A491C8162C18DDD
:104BB000491E0904090CC18503D019E00268526836
:104BC000F1E70168CA6822F02002CA600168CA6879
:104BD00022F48072CA6001684A6922F001024A61C7
:104BE000202180F83E10016B012903D0FEF734FE2E
:104BF000002008BD0021016301680C3151E8002F3D
:104C000022F0100241E80023002BF5D101680A6868
:104C1000D20602D50A6849680091818DFEF7E3FB50
:104C2000E6E7000070B5044600680169E26821F417
:104C30004051114301612169A068E269084361693B
:104C4000114308432168CA6849F20C639A4302433E
:104C5000CA6020684169A26921F440711143416131
:104C600031492068884202D03049884202D1FDF79C
:104C70007DFD01E0FDF76AFDE2690023192164254D
:104C80003226B2F5004F626828D0A0FB0101930FD5
:104C90009200FBF7F5FA0146B0FBF5F06FF0180251
:104CA000504301EB800006EB0010B0FBF5F000F084
:104CB000F002B1FBF5F002EB0012B1FBF5F06FF082
:104CC0001803584301EB800006EB0010B0FBF5F031
:104CD00000F00F0021681044886070BDA0FB010146
:104CE00092185B41FBF7CCFA0146B0FBF5F00201EC
:104CF000B1FBF5F06FF01803584301EB800006EBB1
:104D0000C000B0FBF5F000F0F80002EB4002B1FB90
:104D1000F5F0584301EB800006EBC000B0FBF5F066
:104D200000F00700D6E70000001001400014014029
:104D300081628285C28500210164222280F83E20A2
:104D400080F83C10016921B10168CA6842F48072A0
:104D5000CA6001684A6942F001024A610068C1689C
:104D600041F02001C160002070472DE9F0419846D4
:104D700017460E460446069D27E0681C25D02DB137
:104D8000FDF760FBA0EB0800A8421ED920680C309C
:104D900050E8001F21F4D07140E80012002AF5D13C
:104DA0002068143050E8001F21F0010140E8001293
:104DB000002AF5D1202084F83D0084F83E00002030
:104DC00084F83C000320BDE8F0812068006836EAE2
:104DD000000004D00020B842CFD00020F3E701202B
:104DE000F9E700000148FEF701BB0000F4060020CF
:104DF0000148FEF7FBBA0000380700200148FEF723
:104E0000F5BA00007C070020FEE700000FB44FF465
:104E1000807110B503AB0748029A00F07FF982B2A7
:104E20004FF6FF7303490448FEF7C8FD10BC5DF858
:104E300014FB0000D45A00207C07002086B01E4CD2
:104E40004FF47A77FCF704FB84ED020AFFF7FAFCD3
:104E50002069FBF7DBFD05460E46A068FBF7D6FD93
:104E600062780AB115A200E016A2CDE903628DE8CE
:104E70002300A2781549164800F03CF91448FCF7C5
:104E80001BFD2069FBF7C2FD05460E46A068FBF737
:104E9000BDFD41EC100BCDE9005653EC102B0DA0DD
:104EA000FFF7B4FF384600F0C8FF642212491348E8
:104EB000FCF706FFC6E70000D40000207472756599
:104EC0000000000066616C736500000060850008EA
:104ED0002C01002074312E7478743D2225302E323E
:104EE0006622FFFFFF74322E7478743D2225302E27
:104EF000326622FFFFFF0000D05500202005002071
:104F000070B52B492B4800F0EBFE294800F064FEF9
:104F1000050043D028A100F051FE10B1C168082956
:104F20000ED027A1284600F049FE044626A12846B7
:104F300000F044FE002C2ED0E168082909D02AE0B8
:104F4000406910B1012802D025E021A012E025A07F
:104F500010E000281FD0C16810291CD166690469BF
:104F600025A12046FBF716FA18B12548017821B192
:104F70000CE024A000F0AEF80DE00121017025A0A6
:104F800000F0A8F82A492B48FBF712FA32462146CE
:104F900029A0FFF73BFF284600F0ECFDFF21054864
:104FA000FBF7BEF903490020A1F8000170BD000025
:104FB00098560020E45000206D6F746F720000005E
:104FC00062616C616E63650075736572000000005C
:104FD0004D6F746F72207374617475733A20B9D811
:104FE0000D0A00004D6F746F7220737461747573D5
:104FF0003A20BFAA0D0A00004E6F6E650000000047
:10500000D4000020556E6B6E6F776E2075736572DD
:105010000D0A0000456E7465722075736572206F0D
:105020007065726174696F6E206D6F64650D0A0042
:10503000D35B0020DD5B0020706167652032FFFFDD
:10504000FF74332E7478743D22257322FFFFFF74A2
:10505000342E7478743D22256422FFFFFF00000087
:10506000044D4FF0FF342146286A00F055FFFFF74A
:1050700047FFF8E7000000200B4810B500219FED26
:105080000B0A018080ED020A80ED010A0848FDF755
:10509000B9FF08496FF0010009680861BDE81040D8
:1050A0000448FDF7EBBF0000E85B002000000000B3
:1050B000200600206806002010B50448FEF71EF800
:1050C000BDE810400248FEF72CB800002006002082
:1050D000680600200FB4054B10B503A9044A0298D6
:1050E00000F088F910BC5DF814FB0000115D0008A9
:1050F000200100200FB4084B10B504A902AA0398A0
:1051000000F078F9044602A9002000F015FD2046C1
:1051100010BC5DF814FB0000395B00087CB5044648
:1051200000201D46164600290BD0491ECDE900413E
:10513000044B6A462946304600F05CF9009A00218B
:1051400011707CBD235B00080907090E002804DBF1
:1051500000F1E02080F80014704700F00F0000F12B
:10516000E02080F8141D704730B528B1144C031F9F
:10517000002021680A4605E0084630BD9A4203D85F
:1051800010465268002AF9D1002800D041680BD09F
:105190000468A3EB0005A54204D11B681C44034628
:1051A000046002E0436000E023603AB11C68D51A55
:1051B000A54203D115682C441C6052685A6030BD6A
:1051C000240100200000000000B583B09FED060B15
:1051D0000A4601468DED000B6846FBF7FAFC9DED93
:1051E000000B03B000BD0000000000000000000044
:1051F0002DE9F04782460F4C10480D4E0E4F001B14
:105200004FF0000820F007054FF001090022114679
:10521000504600F0C9FD002802D1306810B10020CE
:10522000BDE8F0873C60C4E90058C6F80090EDE79F
:1052300028010020FC5B002024010020F8670020EA
:1052400002E008C8121F08C1002AFAD1704770474F
:10525000002001E001C1121F002AFBD170470000AD
:105260002DE9FF5F82B00021DDE90430020DDDF899
:1052700040B0034318D044F61050A2F2FF3242432C
:105280001514119801281FD0A5EB0B00401C5FEAF4
:10529000000A4FF000064E4FDFF83891B0465046F6
:1052A00015D5CAF1000413E0119801244AA301287E
:1052B00001D16FEA0B010298119AC0E90031C0E9EF
:1052C000024206B0BDE8F09FCBF10000DFE70446E4
:1052D0000021404A491842EB0450CDE9001012E089
:1052E000E00707D032463B4640464946FBF7DFFA27
:1052F0008046894632463B4610461946FBF7D7FAA8
:1053000006460F466410002CEAD1DDE90401DDE910
:105310000023BAF1000F06DAFBF7C9FA42464B4602
:10532000FBF7C5FA05E0FBF71BFD42464B46FBF7D2
:1053300017FD04460E460022284BFBF793FB03D8CB
:105340004FF0FF30014607E00022254B2046314652
:10535000FBF706FAFBF77FFD102409E0002C0ADBBF
:105360000A220023FAF78CFF039B30321A55641E81
:1053700050EA0102F2D1641C039AC4F111031444EF
:10538000119A012A03D0012208430DD10AE00843F3
:1053900004D000204FF0110B119072E7A3EB0B0526
:1053A0006D1E0DE05B4504DD4FF0000205F10105C7
:1053B00004E003DA4FF00002A5F10105002AECD069
:1053C00002981199C0E90231C0E9004579E700006F
:1053D000000014400000F03F300000000000F043E7
:1053E0000000E03F30380A2801D201207047002039
:1053F000704700002DE9FF4F95B09B468946064651
:1054000000250FE2252877D100242746F84A0121FC
:10541000059400E0044316F8013F203B01FA03F035
:105420001042F7D130782A2811D06FF02F0330784E
:10543000A0F13002092A16D8059A44F0020402EBC2
:10544000820203EB42021044761C0590EFE759F804
:10545000042B0592002A03DA504244F400540590CC
:1054600044F00204761C30782E2816D116F8010F6D
:1054700044F004042A280DD06FF02F023078A0F1F8
:105480003003092B09D807EB870302EB4303C71846
:10549000761CF3E759F8047B761C30786C280FD023
:1054A00006DC4C2817D068280DD06A2814D104E0F7
:1054B000742810D07A280FD10DE044F400140AE0CB
:1054C00044F4801401E044F440147278824202D122
:1054D00004F58014761C761C307866280BD013DC1B
:1054E000582877D009DC002875D04528F6D0462802
:1054F000F4D047281AD19DE118E0632835D06428FC
:1055000079D0652812D195E1702873D008DC67281E
:10551000F1D069286FD06E280DD06F2806D1B5E084
:1055200073282CD0752875D0782874D05A461799CE
:1055300090476D1C75E1C4F30250022809D003287E
:105540000DD0D9F8001004280DD00D6009F1040920
:1055500067E1D9F80010EA17C1E90052F6E7D9F877
:1055600000100D80F2E70D70F0E719F8041B8DF8BC
:10557000001000208DF80100EA46012003E059F8F0
:1055800004AB4FF0FF3061074FF0000102D40DE093
:1055900008F101018846B9420FDA8045F8DB1AF8B4
:1055A00008100029F4D108E008F101018846814281
:1055B000FADB1AF808100029F6D105985B46A0EB33
:1055C000080721463846179A00F094FA284400EB61
:1055D000080507E04DE029E10DE01AF8010B5A46F5
:1055E00017999047B8F10108F7D25B462146384633
:1055F000179A13E142E00A220092C4F302524FF0DC
:10560000000A022A08D059F804CB032A4FEAEC71A9
:105610000AD00DE029E02AE009F1070121F0070294
:10562000F2E802C1914609E00FFA8CFC4FEAEC71F6
:10563000042A03D14FFA8CFC4FEAEC71002907DAF7
:105640000A460021DCF1000C61EB02012D2202E090
:10565000220504D52B228DF80420012203E0E20765
:1056600001D02022F7E7904659E00A2102E01022FB
:105670000DE010214FF0000A00910BE010224FF0D6
:10568000000A44F004040827009203E008224FF0C7
:10569000000A0092C4F30252022A05D059F804CB42
:1056A0000021032A08D009E009F1070121F00702CF
:1056B000F2E802C1914605E01FFA8CFC042A01D1F0
:1056C0000CF0FF0C4FF00008220728D5702806D0F8
:1056D000009B83F0100353EA0A0305D00EE040223A
:1056E0008DF80420012208E05CEA010206D0302295
:1056F0008DF804208DF8050002229046009B83F06F
:10570000080353EA0A030AD15CEA010201D16207E5
:1057100005D530228DF804204FF001087F1E58284F
:1057200004D034A003900EA802900DE036A0F9E753
:1057300053466046009AFAF7A3FD84460398825CBC
:105740000298401E029002705CEA0100F0D10298BB
:1057500006A9081A00F1200A600702D524F4803453
:1057600000E00127574502DDA7EB0A0000E000201A
:1057700000EB0A01009005984144401A0590E003AF
:1057800006D45B462146179A059800F0B3F9054404
:10579000002706E001A85A46C05D179990476D1C86
:1057A0007F1C4745F6DBE0030CD55B462146179A84
:1057B000059800F09FF9054404E030205A461799F7
:1057C00090476D1C0099481E00900029F5DC08E008
:1057D000029802995A460078491C029117999047FD
:1057E0006D1CBAF10001AAF1010AF1DC65E10000CB
:1057F00009280100303132333435363738396162A7
:10580000636465660000000030313233343536376A
:1058100038394142434445460000000000F058F941
:105820000544761C307800287FF4ECAD19B028468A
:10583000BDE8F08F620700D4062709F1070222F0C5
:10584000070CFCE80223E14603F000485FEA080C7D
:1058500002D00FF2702C0DE05FEA045C02D50FF26B
:10586000682C07E05FEAC47C02D00FF2602C01E0F4
:10587000AFF2700C4FF0FF3823F00043CDF850C06A
:1058800065280CD006DC452809D046281DD04728BD
:105890003DD13DE0662818D067287ED138E0002150
:1058A000112F01DB112000E0781CCDE9000106A9D1
:1058B0000EA8FFF7D5FCDDE90F010E9A0391002138
:1058C000009207F1010A04914DE04FF0004000976B
:1058D000CDE9011006A90EA8FFF7C2FCDDE90F0211
:1058E00003920E9B11990022DDF80CA00093049204
:1058F00011B9791C00EB010AB7EB0A0004D4C0F11E
:10590000FF3007F1010A0490AAEB0700019044E080
:10591000012F00DA01270021112F01DD112000E005
:105920003846CDE9000106A90EA8FFF799FCDDE98C
:105930000F010E9A0391002104910092BA462107AB
:105940000CD40399514500DA8A46BAF1010F05DDFE
:10595000009AAAF10101515C302908D0B84202DA5C
:1059600010F1040F06DA0121CDE9011015E0AAF1CA
:105970000101E9E7002805DC049901440491AAEB40
:10598000000102E0411C514500DD8A460499401A9D
:10599000401C01904FF000400290200704D4019871
:1059A000504501DBCDF8048000208DF84F000298AF
:1059B0000DF14F07B0F1004F25D02B200E9002982B
:1059C0004FF0020800280CDA404202902D200E9081
:1059D00007E00A210298FBF779F83031029007F8C6
:1059E000011DB8F10001A8F10108F2DC02980028BD
:1059F000EFD1791E0E980870307800F0200040F04A
:105A0000450007F8020D12A8C01B00F10708149802
:105A1000007800B1012000EB0A01019801EBE07170
:105A200005984144401A401E0590E00306D45B46A9
:105A30002146179A059800F05DF8054414980078FF
:105A400018B15A46179990476D1CE00324D55B4660
:105A50002146179A059800F04DF805441CE004987B
:105A6000002807DBDDE90301884203DD0098405C84
:105A7000179901E0179930205A469047049805F18C
:105A80000105401C04900198401E019004D12E2075
:105A90005A46179990476D1CBAF10001AAF1010A04
:105AA000DDDC05E017F8010B5A46179990476D1C8D
:105AB000B8F10001A8F10108F4DC5B462146179A11
:105AC0000598ABE62D0000002B0000002000000030
:105AD0002DE9F041044600251E461746880404D4EB
